:020000040000FA
:020000001528C1
:100008007E1480310B1C09280A2813282700131E88
:100018000E280F2813288B110B1013128B157E1026
:10002800090016284E308400813085002030860073
:10003800003087002D3082316A228031FC01FD01B9
:10004800D801D901DA01DB01DC017E1020001C2A6D
:1000580082317A22803182313B22803182314722BB
:1000680080311530FB004930890B3828FB0B3828C4
:100078000032803181208031003A03194428452814
:100088005A2820008E110530FB000D30890B4A28B4
:10009800FB0B4A28003220008E150530FB000D307E
:1000A800890B5428FB0B5428003245288B30F0006C
:1000B8008230F1000230F2000030F3007C308131F0
:1000C80020218031F7012A308031D620803120006C
:1000D8000C1E6F2870287E288E110230FB007B08CA
:1000E800F7007C308131DE2180310A30890B7A2893
:1000F80000006B288E157928080020308600003013
:1001080087004D308400003085000530F800160067
:100118001A00F80B8B285230860000308700053013
:10012800F80000301E00F80B96284D30F8007808CB
:10013800F1000530F9007908F200303081319E2154
:1001480080315230F8007808F1000530F90079085C
:10015800F200103081317B2180312000D70157080F
:10016800523E8600870157084D3E840085010008ED
:1001780001060319C028C128C228CC280130F8007C
:100188007808D70705305702031CCB28CC28B3289A
:10019800053057060319D128D228D4280130D5288C
:1001A80000300800FA0020000C107A08F8007808DF
:1001B800F1000530F9007908F200303081319E21D4
:1001C80080317A08F8007808F1000530F9007908DC
:1001D800F2002A3081319E2180317708F8007808B2
:1001E800F10021308131F8218031F101F10A22300A
:1001F8008131F82180311A30F8007808F100243074
:100208008131F82180312830F8007808F100253054
:100218008131F82180310F30F8007808F10026305C
:100228008131F82180310E30F8007808F100203053
:100238008131F82180310800F8007108F600700853
:10024800F5007808F4007408F9004129750884005D
:10025800760885000008F4007408F7000130F507F7
:100268000030F63D7708F4007908860087017408A5
:1002780081000130F4007408F9070130F2020030FF
:10028800F33B720A031D4C29730A031D4C294D299F
:100298002A290800E134E234E334E43405340F3425
:1002A8000E340D340C340B340F340E340D340C343E
:1002B8000B340E3410340934083407340D34103438
:1002C8000934083407340C3410340934083407343A
:1002D8000B3410340934083407340A341034093420
:1002E800083407340F340E340D340C340B34F60054
:1002F80020000C11760882312D228131F7019529D1
:10030800FF3082312D228131F30077087107F40024
:10031800740886008701730881000130F3007308B0
:10032800F70772087702031C9A299B298429200061
:100338000C150800F50020000C11750882312D22DB
:100348008131F601B62971088600870101088231DA
:100358002D2281310130F3007308F1070130F300D9
:100368007308F60772087602031CBB29BC29A72963
:1003780020000C150800073082310A228131F5006F
:100388007508F600761AC929CA29CE29F61ECD297C
:10039800CE29D629FF30F5007508F10027308131C4
:1003A800F8218131F61ED929DA29DC290030DD2926
:1003B80001300800FA0020000C107A08F8007808CC
:1003C800F1007708F9007908F200A03081319E2108
:1003D800813120000C148131BF218131003A031D85
:1003E800F629F729EF290800F30020000C117308FB
:1003F80082312D228131F2007208F40071088231B5
:100408002D22813120000C1574080800F20020000C
:100418000C11720882312D228231FF3082312D2257
:100428008231F1007108F30020000C1573080800F0
:100438002830210099008231632282318231702272
:10044800823182317522823180312C2082312B2AEF
:100458001528F00020009111700824009100200058
:10046800911D372A382A332A240011080800210050
:100478008E140E110E100C110C100C168C1220007C
:100488000C100C1508002400940114179101200089
:100498009111203024009500080020008E012200D0
:1004A8008E0123008E0121008E01080020008C019E
:1004B80022008C0123008C0121008C01080082316C
:1004C8005A2282318231512282310800FE00120004
:1004D8001E00FE0B6B2A003421008E1120008E15A1
:1004E800080021000C1620000C12080020008C12B5
:1004F80008000334033402340234983458348834FE
:100508006834863466346834863466348834013412
:040518000134003476
:020000040001F9
:04000E00E4FFFFFF0D
:00000001FF
