:020000040000FA
:020000001428C2
:100008007E1480312000111C1228203022008C061A
:1000180020003B0897003A08960011107E1009004E
:100028001528FD012000BA01BB017E1020009F2C7D
:1000380000340234083405340234083401340334FB
:1000480008340234033408340334033404340534E4
:1000580002340434043403340834033403340834D5
:1000680002340334083401340334083407340234C6
:1000780008340734023404340534033408340534AE
:1000880003340434013403340434033402340434B0
:100098000234033408340134033408340734023496
:1000A8000834063402340834063402340834073479
:1000B8000234043405340234083405340234043478
:1000C800003402340834033402340834043402346B
:1000D800043401340334043407340234043400345F
:1000E8000234083405340234083405340234043444
:1000F800023403340834013403340834023403343A
:100108000834013403340834013403340434043427
:10011800033408340334033408340434033408340F
:100128000334033408340434033404340334033408
:1001380008340234033408340234033404340034F9
:1001480002340834053402340834013403340834E2
:1001580002340334083403340334043405340234D9
:1001680004340434033408340334033408340234C4
:1001780003340834013403340834073402340834AF
:1001880007340234043405340334083405340334A2
:1001980004340134033404340334023404340234A0
:1001A800033408340134033408340734023408347F
:1001B800063402340834073402340834063403346D
:1001C8000434053403340834053403340434003467
:1001D8000234083401340334083406340334043454
:1001E8000434033408340334033408340234033445
:1001F8000434033403340834043403340834053431
:10020800033404340334033404340134033404342D
:100218000034023408340634023408340434033415
:1002280008340334033408340434033408340334FE
:1002380003340834013403340434073402340834F2
:1002480002340334083401340334043400340234EF
:1002580008340334033408340234033408340134D2
:1002680003340834053402340434053402340434C5
:1002780000340234083403340334083402340334B9
:10028800083401340334083407340234043407349E
:100298000234043407340234043400340234083499
:1002A800063402340834063402340834063402347E
:1002B8000834063402340834063402340834063468
:1002C800023408340534023408340434023408345F
:1002D800063402340834063402340834053402344F
:1002E8000834053402340434003402340834033446
:1002F8000334083402340334083401340334083432
:10030800053402340434053402340434003402342D
:100318000834033403340834023403340834013411
:1003280003340834073402340834013403341034F5
:1003380007340234103407340234043407340234E6
:1003480004340034023408340134033408340134EA
:1003580003340834013403340834013403340834D2
:1003680001340334083401340334083406340234C5
:1003780008340134033408340634023408340634AB
:10038800033408340534033408340534033404349E
:100398000334033404340434033404340534033498
:1003A800043405340334043405340334083407347E
:1003B800023408340734023408340234033408346D
:1003C8000134033408340134033408340134033469
:1003D8000434003402340434063402340834053456
:1003E800033408340534033408340334033408343C
:1003F8000434033408340334033408340434033431
:10040800083403340334083401340334083403341F
:10041800033408340334033408340234033408340E
:10042800003402340434033403340434043403340D
:1004380004340634033408340534033408340534EA
:1004480003340434053403340834073402340834DC
:1004580007340234083402340334083401340334D2
:1004680008340134033408340134033404340034C8
:1004780002340434003402340834043403340834B5
:1004880004340334083403340334083404340334A0
:100498000834033403340834043403340434003493
:1004A800023408340434033408340434033408347C
:1004B8000334033408340434033408340334033471
:1004C8000834043403340834013403340834013460
:1004D800033408340534033408340534033404344D
:1004E8000534033404340534033404340534033444
:1004F8000434053403340434053403340434003438
:10050800023408340534023408340134033408341E
:100518000234033408340334033404340534023415
:100528000434043403340834033403340834023400
:1005380003340834013403340834073402340834EB
:1005480007340234043405340334083405340334DE
:1005580004340534033404340134033404340334D8
:1005680002340434023403340834013403340834C4
:1005780007340234083406340234083406340234AA
:10058800083407340234043405340234083405349A
:100598000234043405340234043404340234043498
:1005A800013403340434073402340434003402348C
:1005B800083405340234083405340234043402346F
:1005C800033408340134033408340234033408345F
:1005D8000134033408340134033404340434033458
:1005E800083403340334083404340334083403343B
:1005F800033408340434033404340334033408342F
:100608000234033408340234033404340234033427
:100618000434003402340834053402340834013414
:100628000334083402340334083403340334043400
:1006380005340234043404340334083403340334F2
:1006480008340234033408340134033408340734DA
:1006580002340834073402340434053403340834CB
:1006680005340334043405340334043401340334C6
:1006780004340334023404340234033408340134B7
:100688000334083407340234083406340234083496
:10069800073402340834063403340434053403348C
:1006A8000834053403340434003402340834013483
:1006B800033408340634033404340434033408346B
:1006C8000334033408340234033404340334033465
:1006D800083404340334083405340334043403344C
:1006E8000334043401340334043400340234083449
:1006F800063402340834043403340834033403342D
:10070800083404340334083403340334083401341B
:10071800033404340734023408340234033408340C
:100728000134033404340134033404340034003411
:1007380000340034023404340034023408340334FE
:1007480003340834033403340834023403340834DB
:1007580002340334083401340334083401340334D4
:1007680004340634023408340634023408340234BB
:1007780003340834033403340834053403340834A8
:10078800053403341034033403341034033403348D
:10079800043403340334083403340334083403348E
:1007A800033408340234033408340234033408347C
:1007B8000134033408340134033404340634023475
:1007C8000834063402340834023403340834033459
:1007D800033408340734033408340734033410343A
:1007E8000534033410340534033404340534033435
:1007F800083403340334083403340334083402342B
:10080800033408340234033408340134033408341C
:100818000134033404340634023404340234033417
:1008280004340234033408340334033408340534FC
:1008380003340434073403340834013403340834EB
:1008480001340334043403340334083402340334E5
:1008580008340634023404340634023408340334C9
:1008680003340834033403340834023403340834BA
:1008780002340334083401340334083401340334B3
:10088800043406340234083406340234083402349A
:100898000334083403340334083405340334083487
:1008A800053403341034033403341034033403346C
:1008B800043403340334083403340334083403346D
:1008C800033408340234033408340234033408345B
:1008D8000134033408340134033404340634023454
:1008E8000834063402340834023403340834033438
:1008F8000334083407340334083407340334103419
:100908000534033410340534033404340534033413
:100918000834033403340834033403340834023409
:1009280003340834033403340834053403340834F6
:100938000034003400342830210099002000B6012A
:10094800B701FE26FA26DE26B82C34083504031D26
:10095800092D32083304031D092DB601B701B82C3F
:100968008B13320866268B172000AE01AF01AC014D
:10097800AD01A601A701B201B301B401B5019D30D3
:10098800B0008330B1003008360784003108373DA5
:1009980085000008F900FA017908B8007A08B9005A
:1009A80036083007F9003708313DFA000130790779
:1009B80084007A0803187A0A85000008FB00FC0105
:1009C8007B08B4007C08B50036083007F900370802
:1009D800313DFA000230790784007A0803187A0A50
:1009E80085000008FB00FC017B08F0007C08F10092
:1009F8001030F2000030F30015267108B3007008BB
:100A0800B200380839040319A92C3608033EB60089
:100A18000030373DB700380839040319B42C3808BA
:100A2800FF3EB800FF30393DB90034033504031DDB
:100A38002B2D39088500380884008435850DD03081
:100A480084078630853D003FB800013F502D0230B5
:100A580034063504031D3E2D390885003808840006
:100A68008435850DC23084078630853D003FB80047
:100A7800013F502D033034063504031D512D39082C
:100A88008500380884008435850DB43084078630A5
:100A9800853D003FB800013FB9003808F00039082B
:100AA800F100F201F3010030F7000F30F600423098
:100AB800F5004030F40094257308AB007208AA00D2
:100AC8007108A9007008A8000030F3000030F20097
:100AD8000030F1000230F0002B08F7002A08F60079
:100AE8002908F5002808F40094252C087007AC00A4
:100AF8002D08713DAD00FF302C05F9003F302D0564
:100B0800FA007909AE007A09AF002F08F9007908D0
:100B1800BB002E08F9007908BA0032086626B82CFE
:100B2800A101F31FA42DF009F109F209F309F00A54
:100B38000319F10A0319F20A0319F30AA101A10A18
:100B4800F71FB52DF409F509F609F709F40A031991
:100B5800F50A0319F60A0319F70A0130F8007808AC
:100B6800A1060030A5000030A4000030A30000302A
:100B7800A20073087204710470040319FE2DA00109
:100B8800A00AF31BD32D0130F035F10DF20DF30D52
:100B9800890BC82D0130F8007808A007C52D013051
:100BA800A235A30DA40DA50D890BD42D73087702CA
:100BB800031DE82D72087602031DE82D71087502E1
:100BC800031DE82D70087402031CF32D7008F4024D
:100BD8007108F53B7208F63B7308F73B22140130A5
:100BE800F336F20CF10CF00C890BF42D0130A00255
:100BF800031DD32D210803190C2EA209A309A4094A
:100C0800A509A20A0319A30A0319A40A0319A50A24
:100C18002508F3002408F2002308F1002208F00058
:100C28000800F601F11F1F2EF009F109F00A031957
:100C3800F10AF601F60AF31F2A2EF209F309F20A5D
:100C48000319F30A0130F4007408F606F701F801F5
:100C5800700871040319592EF501F50AF11B3E2E8F
:100C68000130F035F10D890B352E0130F400740890
:100C7800F507322E0130F735F80D890B3F2E710834
:100C88007302031D492E70087202031C502E70084F
:100C9800F2027108F33B77140130F136F00C890B3E
:100CA800512E0130F502031D3E2E76080319612EE0
:100CB800F709F809F70A0319F80A7808F10077081C
:100CC800F0000800F1007103031D732E0530F000D9
:100CD8000D30890B6D2EF00B6D2E0032080002309E
:100CE8007106031D802E0930F0001C30890B7A2E06
:100CF800F00B7A2E0032080003307106031D8D2E8A
:100D08000D30F0002B30890B872EF00B872E003228
:100D1800080004307106031D9A2E1130F0003A3095
:100D2800890B942EF00B942E0032080005307106C2
:100D3800031DA72E1530F0004930890BA12EF00BAA
:100D4800A12E0032080006307106031D0800193074
:100D5800F0005830890BAE2EF00BAE2E0032080092
:100D68001634043497340434263405347534053481
:100D780020340634E0340634AF3407340B340234FC
:100D88004B34023493340234BA340234103403340A
:100D980070340334DC34033406340134263401342B
:100DA8004A3401345D34013488340134B8340134B0
:100DB800EE34013420009701960118142100111413
:100DC800200011100B178B17080020008E0122003D
:100DD8008E0123008E0121008E0108008C01220063
:100DE8008C0123008C0121008C0108008C12220048
:0A0DF8008C120800F226E92608001C
:020000040001F9
:04000E00A4C9FFDCA6
:00000001FF
