:020000040000FA
:020000000828CE
:100008007E1480317E10090009280F308400813069
:10001800850020308600003087002D308231DB22B9
:100028008031DC01DD01DE01DF01E001E101E201F7
:10003800E301E4017E102000902A2000DA01DB01B0
:100048008231F22280318231AC2280318231B82271
:100058008031A3302000D8005530890B3128D80BC7
:10006800312880318C208031003A03193C283D2802
:10007800422801308131652180313D2801308131AC
:100088008E21803101308131B7218031023020004A
:10009800D8005808F700483082313C2280310630B9
:1000A800F0008330F1000230F2000030F3006330DA
:1000B8008031E120803120000C1A632864287E28D2
:1000C800DA015A3081313C21803182315422803129
:1000D800063084008330850000082000D8005A08C4
:1000E8005806031D78287928822821008C122000C0
:1000F8008C16822821008C1620008C12A330200038
:10010800D8005530890B8628D80B86285F28080028
:1001180020308600003087004D3084000030850094
:100128000530F80016001A00F80B962852308600A1
:10013800003087000530F80000301E00F80BA128B9
:100148004D30F8007808F1000530F9007908F20020
:1001580030308131FE2180315230F8007808F100CA
:100168000530F9007908F20010308131DB21803147
:100178002000D7015708523E8600870157084D3E98
:1001880084008501000801060319CB28CC28CD2856
:10019800D7280130F8007808D70705305702031C24
:1001A800D628D728BE28053057060319DC28DD28AD
:1001B800DF280130E02800300800F8007108F60058
:1001C8007008F5007808F4007408F9000229750829
:1001D8008400760885000008F4007408F7000130F0
:1001E800F5070030F63D7708F400790886008701A6
:1001F800740881000130F4007408F9070130F20234
:100208000030F33B720A031D0D29730A031D0D29E3
:100218000E29EB280800E134E234E334E4340534F1
:100228000F340E340D340C340B340E3410340934BE
:10023800083407340D3410340934083407340C34C6
:1002480010340934083407340B34103409340834B2
:1002580007340A3410340934083407340F340E34A0
:100268000D340C340B340F340E340D340C340B3481
:100278002000CD008231ED22813140390319452912
:100288004629612920004D0882311F228131FD0055
:100298007D082000CE00FF30FD007D08F1002730EA
:1002A80082317E2281318231E722813120004E085D
:1002B800013EFD007D08CE0063292000CE014E08D6
:1002C8000800F2007B2920000E164130F000EE30C5
:1002D800890B6C29F00B6C29003220000E1241307A
:1002E800F000EE30890B7629F00B762900320130C8
:1002F800F202720A031D8129822967290230F1005E
:100308004530F000AA30890B8729F00B8729F10BBB
:1003180087290800F200A42920008E164130F00039
:10032800EE30890B9529F00B9529003220008E12AA
:100338004130F000EE30890B9F29F00B9F290032E5
:100348000130F202720A031DAA29AB299029023052
:10035800F1004530F000AA30890BB029F00BB02924
:10036800F10BB0290800F60020000C107608F50003
:100378007508F100213082317E2281317608F5003E
:100388007508F100223082317E2281312830F50053
:100398007508F100253082317E2281310F30F50059
:1003A8007508F100263082317E2281310800F6007E
:1003B80020000C11760882319E228131F701F5293F
:1003C800FF3082319E228131F30077087107F400F3
:1003D800740886008701730881000130F3007308F0
:1003E800F70772087702031CFA29FB29E429200081
:1003F8000C150800F50020000C11750882319E22AA
:100408008131F601162A71088600870101088231B8
:100418009E2281310130F3007308F1070130F300A7
:100428007308F60772087602031C1B2A1C2A072A7F
:1004380020000C150800FB008231E1228231F8000F
:100448007808FC007C08113E82316C228231F80069
:100458007808FA007B08F8007808F1007A08F900B3
:100468007908F20061308131DB2182317C08080093
:10047800FA0020000C107A08F8007808F10005301E
:10048800F9007908F2002A308131FE21823177089B
:10049800F8007808F100313082317E22823108007C
:1004A8007030F5007508F100273082317E228231E4
:1004B800F6007608F800781E622A632A632AF81E76
:1004C800662A672A672A781F6A2A6B2A6B2A080015
:1004D800F20020000C11720882319E228231FF3016
:1004E80082319E228231F1007108F30020000C1540
:1004F80073080800F30020000C11730882319E2253
:100508008231F2007208F400710882319E22823131
:1005180020000C1574080800583021009900823119
:10052800D42282318231F5228231803121208231F8
:100538009C2A0828F00020009111700824009100DE
:100548002000911DA82AA92AA42A2400110808001D
:1005580021008E140E110E100C110C100C168C129A
:1005680020000C100C1508002400940114179101A8
:1005780020009111203024009500080020008E01F1
:1005880022008E0123008E0121008E010800200028
:100598008C0122008C0123008C0121008C010800B1
:1005A8008231CB2282318231C22282310800FE00A0
:1005B80012001E00FE0BDC2A00348231ED2282314B
:1005C800893607390800F101E23082317E22823112
:1005D8000800073082316C228231080020008C121A
:1005E800080021000C1608000334033402340234D6
:1005F8009834583488346834863466346834863499
:0806080066348834013401342A
:020000040001F9
:04000E00E4FFFFFF0D
:00000001FF
