:100369000216000002100000021400000112FF0131
:100379001300020E07D0010D00C18002080000021F
:060389000A0000010C0057
:0A00A90090FE19E4F0C291C2922209
:0A04320000007F4E7EE9DEFEDFFCD5
:01043C00229D
:0C042600D291120006C29112044880F42A
:10032A00E4F594F593F592F591F596F595F5B2F510
:10033A00B1F5B4F5B343BA80F5F190FFF2F090FF4E
:10034A00F07410F0A3E4F090FF00F0A3F0A3F0A380
:0F035A0004F0A37480F0E4F5BA75FEC0D2AF22B0
:0300B30002028DB9
:08028D00C0E0C083C082C0D0B4
:10029500E5F130E74353F17F3000150509E50970B5
:1002A500020508C3E50864809490401BC2008017CE
:1002B500E509150970021508D3E5099401E50864F7
:1002C5008094805002D200C0BA43BA8090FF02E504
:0802D50008F0A3E509F0D0BA1E
:0902DD00D0D0D082D083D0E032F1
:10022A007518007519C8AE18AF19AB07AA06E4C34A
:10023A009BFFE49AFE74019400FDE49400FCE4FB45
:10024A007A01F9F81202E68F12AE18AF19AB07AAB3
:10025A0006E4C39BFFE49AFE74019400FDE4940053
:10026A00FCE4FB7A01F9F81202E6AF038F13438E1E
:10027A00805389F0758A88758CFFC28DC28CC2A999
:02028A00D2AFF1
:01028C00224F
:03000B000201846B
:04018400C0E0C0D047
:10018800758A88758CFF0517E51770020516C395E3
:100198000FE516950E406B751600751700E51145AD
:1001A8001070290515E5157002051474FB250FF567
:1001B8000F74FF350EF50ED3E50F9400E50E94008D
:1001C800500A751000751101C28CC2A9E5116401AD
:1001D80045107028E5151515700215147405250FBE
:1001E800F50FE4350EF50EC3E50F94D0E50E940730
:1001F800400A751000751100C28CC2A985140A85C1
:10020800150BD3E50B9400E50A64809480400CD26A
:0D02180091E50B150B7002150A8002C291D2
:05022500D0D0D0E03252
:07049600D288D2A8D2AF22E8
:0300030002039065
:09039000C0E0C0D075D000C00728
:10039900C28CC2A9AF0CEF3395E04F7002F50DD2B4
:0303A9008CD2A94A
:0703AC00D007D0D0D0E032F1
:0B043D001200A912049612022A80FE91
:040006007F06DFFE94
:01000A0022D3
:04049D007F9EDFFE61
:0104A1002238
:09045E00007F027E8CDEFEDFFC53
:010467002272
:080472007F077E39DEFEDFFC8E
:01047A00225F
:08047B007F0A7E57DEFEDFFC64
:010483002256
:080484007F107E93DEFEDFFC19
:01048C00224D
:09046800007F207E28DEFEDFFC8F
:010471002268
:0A04480000007F3F7E53DEFEDFFC64
:010452002287
:0D03EF00007F037E6A7D1FDDFEDEFCDFFA6D
:0103FC0022DE
:0A04530000007F9C7ED5DEFEDFFC7A
:01045D00227C
:08048D007FFA7E57DEFEDFFC62
:010495002244
:0E009A0000007F027E197D80DDFEDEFCDFFAB5
:0100A8002235
:0C0419007F027E387DACDDFEDEFCDFFAE9
:0104250022B4
:0D03FD00007F037E707D5BDDFEDEFCDFFA1D
:01040A0022CF
:0E03B30000007F047EA87D0ADDFEDEFCDFFA7E
:0103C1002219
:0D040B00007F077E177D69DDFEDEFCDFFA55
:0104180022C1
:0E03C20000007F0D7E2D7DD6DDFEDEFCDFFA15
:0103D000220A
:0E03D10000007F197E5A7DB0DDFEDEFCDFFAF3
:0103DF0022FB
:0E03E00000007F7A7EC17D80DDFEDEFCDFFA4C
:0103EE0022EC
:0300000002000EED
:0C000E00787FE4F6D8FD758120020055D3
:1002E600C2D5E830E70FB2D5E4C39BFBE49AFAE443
:1002F60099F9E498F8EC30E717B2D512031C12000E
:10030600F2E4C39BFBE49AFAE499F9E498F88003D3
:100316001200F230D50DE4C39FFFE49EFEE49DFD7E
:04032600E49CFC2235
:10001A0002043DE493A3F8E493A34003F68001F2BB
:10002A0008DFF48029E493A3F85407240CC8C333E7
:10003A00C4540F4420C8834004F456800146F6DFB6
:10004A00E4800B0102040810204080900369E47EDA
:10005A00019360BCA3FF543F30E509541FFEE493AB
:10006A00A360010ECF54C025E060A840B8E493A372
:10007A00FAE493A3F8E493A3C8C582C8CAC583CA9D
:10008A00F0A3C8C582C8CAC583CADFE9DEE780BE55
:01038F00006D
:1000B60075F008758200EF2FFFEE33FECD33CDCC01
:1000C60033CCC58233C5829BED9AEC99E582984084
:1000D6000CF582EE9BFEED9AFDEC99FC0FD5F0D661
:1000E600E4CEFBE4CDFAE4CCF9A88222B800C1B98B
:1000F6000059BA002DEC8BF084CFCECDFCE5F0CBC9
:10010600F97818EF2FFFEE33FEED33FDEC33FCEB01
:1001160033FB10D703994004EB99FB0FD8E5E4F9BC
:10012600FA227818EF2FFFEE33FEED33FDEC33FCA9
:10013600C933C910D7059BE99A4007EC9BFCE99A9D
:10014600F90FD8E0E4C9FAE4CCFB2275F010EF2FE2
:10015600FFEE33FEED33FDCC33CCC833C810D707E2
:100166009BEC9AE899400AED9BFDEC9AFCE899F81D
:0E0176000FD5F0DAE4CDFBE4CCFAE4C8F922B0
:00000001FF
