:020000040000FA
:020000001528C1
:100008007E1480310B1C09280A2813282700131E88
:100018000E280F2813288B110B1013128B157E1026
:10002800090016288630840081308500203086003B
:10003800003087002830823164228031D301D40116
:10004800D501D601D701D801D901DA017E102000E7
:10005800162AF90020000C104330F7007708F10049
:100068000530F8007808F20030308131D121803134
:100078004330F7007708F1000530F8007808F200FF
:100088002A308131D12180317908F7007708F100D1
:100098000230F8007808F200A0308131D121803197
:1000A800F101F10A21308131F2218031F101F10AA7
:1000B80022308131F22180311A30F7007708F100BF
:1000C80024308131F22180312830F7007708F1009F
:1000D80025308131F22180310F30F7007708F100A7
:1000E80026308131F22180310E30F7007708F10097
:1000F80020308131F221803120000C14080020309A
:1001080086000030870048308400003085000530C4
:10011800F80016001A00F80B8D284D3086000030C4
:1001280087000530F80000301E00F80B982848308A
:10013800F8007808F1000530F9007908F20030304D
:100148008131D12180314D30F8007808F100053037
:10015800F9007908F20010308131AE218031200099
:10016800D20152084D3E860087015208483E84005D
:100178008501000801060319C228C328C428CE280F
:100188000130F8007808D20705305202031CCD2848
:10019800CE28B528053052060319D328D428D628E6
:1001A8000130D72800300800823174228031823132
:1001B80035228031823141228031A330FD00553013
:1001C800890BE428FD0BE42800008031832080316E
:1001D800003A0319F028F128062920008E11213051
:1001E800FD007630890BF628FD0BF628003220003A
:1001F8008E152130FD007630890B0029FD0B002972
:100208000032F1288530F0008230F1000230F2002F
:100218000030F300593081315821803120000C1E04
:100228001629172925298E11593081312821803125
:10023800A330FD005530890B1F29FD0B1F29000035
:1002480012298E151C290800FB007B0880312D20FF
:1002580081310730823104228131FA007A08FC00AA
:100268007C1A372938293C29FC1E3B293C292D2991
:100278007C1E3F29402944291030FA007A08FC00E6
:10028800FC1E47294829482920000C10FF30FA0095
:100298007A08F10027308131F2218131F101E13012
:1002A8008131F22181310800F8007108F6007008E8
:1002B800F5007808F4007408F900792975088400B5
:1002C800760885000008F4007408F7000130F50787
:1002D8000030F63D7708F400790886008701740835
:1002E80081000130F4007408F9070130F20200308F
:1002F800F33B720A031D8429730A031D8429852987
:1003080062290800E134E234E334E43405340F347C
:100318000E340D340C340B340E34103409340834D4
:1003280007340D3410340934083407340C341034CD
:100338000934083407340B341034093408340734CA
:100348000A3410340934083407340F340E340D34A9
:100358000C340B34F60020000C1176088231272269
:100368008131F701C829FF30823127228131F3001A
:1003780077087107F4007408860087017308810004
:100388000130F3007308F70772087702031CCD29C0
:10039800CE29B72920000C150800F50020000C1103
:1003A8007508823127228131F601E9297108860012
:1003B800870101088231272281310130F300730857
:1003C800F1070130F3007308F60772087602031C80
:1003D800EE29EF29DA2920000C150800F300200087
:1003E8000C117308823127228131F2007208F4005F
:1003F800710882312722813120000C157408080009
:10040800F20020000C117208823127228231FF305D
:10041800823127228231F1007108F30020000C1587
:100428007308080058302100990082315D2282311A
:1004380082316A22823182316F2282318031D82022
:100448008231252A1528F000200091117008240017
:1004580091002000911D312A322A2D2A24001108EA
:10046800080021008E140E110E100C110C100C1621
:100478008C1220000C100C1508002400940114178D
:1004880091012000911120302400950008002000DF
:100498008E0122008E0123008E0121008E010800AA
:1004A80020008C0122008C0123008C0121008C018A
:1004B800080082315422823182314B228231080075
:1004C800FE0012001E00FE0B652A003421008E116A
:1004D80020008E15080021000C1620000C120800C0
:1004E80020008C1208000334033402340234983498
:1004F80058348834683486346634683486346634CC
:06050800883401340134C7
:020000040001F9
:04000E00E4FFFFFF0D
:00000001FF
