:020000040000FA
:02000000532883
:100008007E1480310B1D512805307B02031C3328D8
:10001800FB01FB0A3328770803194928F0017B08FC
:10002800F5007508F10077085D204928F001F00A0D
:100038007B08F5007508F10078085D204928F00173
:100048007B08F5007508F10079085D204928F00162
:100058007B08F5007508F1007A085D2049287B08BF
:10006800F500F6017608003A03193B284928750877
:10007800013A03190F28033A03191A28013A0319F8
:100088002328073A03192B2849280130F500750859
:10009800FB070B113730200095007E10090054280B
:1000A800DA24FB00F701F801F901FA017E102000BB
:1000B800222BF400B12821008C168C1E6628210002
:1000C8000C16682821000C120C1E6D2821008C15B6
:1000D8006F2821008C1122008C12842821000C1515
:1000E8000C1D792821000C167B2821000C120C1EEF
:1000F800802821008C15822821008C1122000C11E7
:100108000C12992821000C150C1D8D2821008C1625
:100118008F2821008C128C1E942821008C1596287B
:1001280021008C1122000C118C1220008C112C2A19
:1001380021000C150C1DA32821008C16A5282100D0
:100148008C128C1EAA2821000C16AC2821000C1237
:1001580022000C118C120C122C2A7108F200F301E7
:100168007308003A0319B9282C2A7208013A0319AE
:100178009C28033A03198628013A03197228073A7A
:1001880003195F282C2A21008E120E128E110E11CF
:100198008E100E1022008E120E128E110E118E105D
:1001A8000E1021008C148C1CDC2821000C14DE2875
:1001B80021000C1022008C100C10572A21000E115F
:1001C8008E1022000E118E1021008C148C1CEF282A
:1001D80021000C14F12821000C100C1CF628210019
:1001E8008E16F82821008E128E1EFD2821000E166C
:1001F800FF2821000E120E1E042921008E15062943
:1002080021008E118E1D0B2921000E140D292100AD
:100218000E1022008C100C108E12762921008E11DF
:100228000E120C108E100E1022008E110E120C10D1
:100238008E100E1021008C148C1C252921008E167E
:10024800272921008E128E1E2C2921000E152E29F9
:1002580021000E1122008C108E120E11572A210037
:100268000C108E110E118E100E1022000C108E1113
:100278000E118E100E1021008C148C1C46292100A2
:100288008E16482921008E128E1E4D2921000E1629
:100298004F2921000E1222008C108E120A2A2100EA
:1002A8000C108E120E118E1022000C108E120E11D0
:1002B8008E1021008C148C1C642921000E166629CE
:1002C80021000E120E1E6B2921008E156D292100AA
:1002D8008E118E1D722921000E14742921000E1012
:1002E80022008C100E128E11EF2921000C108E1294
:1002F8008E110E110E1022000C108E128E110E117E
:100308000E1021008C148C1C8C2921000E168E29AD
:1003180021000E120E1E932921008E14952921000A
:100328008E1022008C100E122A2A21000C108E1218
:100338000E128E110E110E1022000C108E120E12BB
:100348008E110E110E1021008C148C1CAE29210068
:100358008E14B02921008E1022008C102A2A210028
:100368000E118E100E1022000E118E100E1021008C
:100378008C148C1CC22921000C14C42921000C10D7
:100388000C1CC92921008E16CB2921008E128E1E25
:10039800D02921000E16D22921000E120E1ED729AF
:1003A80021008E15D92921008E1122008C100C10E5
:1003B8008E120E128E11572A21000C108E120E1258
:1003C8008E110E118E100E1022000C108E120E12AD
:1003D8008E110E118E100E10572A21000C108E123D
:1003E8008E110E118E100E1022000C108E128E110E
:1003F8000E118E100E1021008C148C1C062A210060
:100408000E16082A21000E1222008C100E12572AEE
:1004180021000C108E120E128E110E1022000C10DC
:100428008E120E128E110E108C148C1C1E2A210096
:100438000E15202A21000E110E1D252A21008E14CA
:10044800272A21008E1022008C100E118E10572A98
:100458007408F200F3017308003A0319342A0C2ACD
:100468007208003A0319C728013A0319E228033A27
:1004780003191229013A03193329073A0319532991
:10048800013A03197929033A03199929013A0319F9
:10049800B3290F3A0319E029013A0319F1294C3A13
:1004A80003190C2A0C2A700803195D2A21008C10E4
:1004B8005F2A21008C1422008C10762A21000C114E
:1004C80022000C15080021008C1222008C1608004E
:1004D80021000C1222000C16080021008C112000AB
:1004E8008C1508007108F200F3017308003A03192B
:1004F8007E2A8C2A7208013A0319712A033A0319D1
:100508006C2A013A0319672A073A0319622A8C2AC6
:100518000800A8002808A4002408A9002208230429
:10052800031908002008A400290886008701240868
:1005380081002008A40022082907A5002508FF3EFD
:100548008600870124088100003023020330031944
:100558002202031C08002008A400290A860087013B
:10056800240881002008A4002908023E860087018B
:10057800240881002008A40022082907A5002508CE
:10058800FE3E86008701240881002008A400220876
:100598002907A5002508FD3E86008701240881005B
:1005A80000302302073003192202031C0800200828
:1005B800A4002908033E860087012408810020083A
:1005C800A40022082907A5002508FC3E860087010B
:1005D8002408810000302302093003192202031C79
:1005E80008002909A4002A09A500A40A0319A50AD4
:1005F80003302405A60000302505A7002608A4001E
:100608002408A9072608A2022708A33BFC30A20554
:10061800FF30A30522082304031908002008A400BA
:10062800290886008701240881000130A2020030D1
:10063800A33B0130A4002408A9070E2B6830210031
:100648009900D724D324CB24AF2422009717171F4F
:100658002B2B21001D1403302000C3009730890B79
:10066800332BC30B332B0032B3232908C6002808C9
:10067800C500023046020C3003194502031C462B04
:10068800013068242200971320004608C800450856
:10069800C7000030A000A1000430A2000030A30071
:1006A80077308D220A30A8000030A900E830A00079
:1006B8000330A1004808A3004708A2000824210825
:1006C800AB002008AA003C242808C3004308F70010
:1006D8000A30A8000030A9006430A0000030A10052
:1006E8004808A3004708A20008242108AB002008F6
:1006F800AA003C242808C3004308F8000A30A800D0
:100708000030A9000A30A0000030A1004808A3006A
:100718004708A20008242108AB002008AA003C24AE
:100728002808C3004308F9000A30A8000030A900CF
:100738004808AB004708AA003C242808C30043081F
:10074800FA000B302000C4002630C3005D30890B4E
:10075800AB2BC30BAB2BC40BAB2B0032292B0830B4
:100768002000AA002A08C000BC01BD01C101C201C5
:100778004008AA00AB012B084202031DC52B2A081A
:1007880041020318D52B8E2441352C3E8600870163
:100798002008C03F2108C13F0130C1070030C23DD9
:1007A800BC2BC101C2014008AA00AB012B084202C0
:1007B800031DE02B2A0841020318F32B41352C3E78
:1007C80086008701403FAA00413FAB002A08BC07CA
:1007D8002B08BD3D0130C1070030C23DD72B400872
:1007E800AA00AB012A08A0002B08A1003D08A3001D
:1007F8003C08A20008242108BF002008BE003F08CA
:10080800A9003E08A8000800A501A60120082104A7
:100818000319372CA701A70AA11B1C2C0130A035EE
:10082800A10D890B132C0130A4002408A707102C54
:100838000130A535A60D890B1D2C21082302031DA7
:10084800272C20082202031C2E2C2008A202210893
:10085800A33B25140130A136A00C890B2F2C0130A5
:10086800A702031D1C2C2608A1002508A0000800CB
:10087800280829040319632CAD01AD0AA91B4E2CC5
:100888000130A835A90D890B452C0130AC002C0886
:10089800AD07422C29082B02031D542C28082A02D4
:1008A800031C5A2C2808AA022908AB3B0130A93698
:1008B800A80C890B5B2C0130AD02031D4E2C2B08B4
:1008C800A9002A08A8000800A20001302000A202FE
:1008D800220A0319080022000C1202302000A1008D
:1008E8000430A000BA30890B772CA00B772CA10B11
:1008F800772C000022000C1602302000A1000430E2
:10090800A000BA30890B862CA00B862CA10B862C54
:100918000000692C21009D149D18902C1C082000B3
:10092800A200A3012208A4002308A5002408A3000C
:10093800A2012208A4002308A50021001B0820000A
:10094800A200A3012208A4072308A53D2508A100A9
:100958002408A0000800843095008B170B178B160D
:100968000B11373020009500080020008E0122006E
:100978008E0123008E0121008E01080020008C01C9
:1009880022008C0123008C0121008C0108005130C9
:100998009700803021009E007C309D0008000C12DA
:0E09A80022000C160800C224B92408000134F5
:020000040001F9
:04000E00A4C9FFDCA6
:00000001FF
