:020000040000FA
:0200000069286D
:100008007E1480310B1D09280A28672820004B0818
:1000180003190F28102863286430F0000030F1001D
:100028004C08AD00AE012D08F2002E08F300823115
:10003800CD22803170082000AF002F08B0000A30B0
:10004800F9000030FA000A30F0000030F1004C08E6
:10005800AD00AE012D08F2002E08F3008231CD224A
:1000680080317108FC007008FB008331D723803190
:1000780079082000AF002F08B1000A30F9000030DD
:10008800FA004C08AD00AE012D08FB002E08FC005C
:100098008331D723803179082000AF002F08B200C0
:1000A8000230AD002D08F000310880316F2080311A
:1000B800F001F00A2000320880316F2080310B11E6
:1000C8006430200095007E1009006A282000CC01C9
:1000D8007E102000C62C2000A000C030F10071085E
:1000E800A100F930F1007108A200A430F1007108F4
:1000F800A300B030F1007108A4009930F100710834
:10010800A5009230F1007108A6008230F100710854
:10011800A700F830F1007108A8008030F1007108DC
:10012800A9009030F1007108AA007F30F100710831
:10013800AB000630F1007108AC001029210821003D
:100148008E0020008E0021000C140C18AC28AF285B
:1001580020000C14B12820000C1021008C148C18DD
:10016800B628B92820008C14BB2820008C104D29F3
:10017800220821008E0020008E00A72823082100D5
:100188008E0020008E0021000C1020000C10B128D9
:10019800240821008E0020008E00C7282508210091
:1001A8008E0020008E00C728260821008E0020001F
:1001B8008E00C728270821008E0020008E00C7283F
:1001C800280821008E0020008E00A7282908210079
:1001D8008E0020008E00C7282A0821008E002000EB
:1001E8008E00C7282C0821008E0020008E00C7280A
:1001F8002B0821008E0020008E0021000C140C1802
:100208000629092920000C140B2920000C102100B4
:100218008C1020008C104D292008F100F201720882
:10022800003A03191829FC287108003A0319A22872
:10023800013A0319BC28033A0319C228013A0319E1
:10024800CC28073A0319D228013A0319D828033AC7
:100258000319DE28013A0319E4280F3A0319EA289A
:10026800013A0319F0284C3A0319F628FC28210012
:100278008C1220008C1621000C1620000C125D290F
:1002880021000C1220000C1621008C1620008C1264
:100298005D297008F100F2017208003A0319552926
:1002A8005D297108013A03194429033A03193B29C6
:1002B8005D292A30F1008E30890B6029F10B602905
:1002C80021008C168C1A69296C2921000C166E29BC
:1002D80021000C1208002000B600F930B4003408E0
:1002E800B800A430B4003408B900B030B400340801
:1002F800BA009930B4003408BB009230B400340816
:10030800BC008230B4003408BD00F830B4003408B2
:10031800BE008030B4003408BF009030B400340808
:10032800C0007F30B4003408C1000630B40034087F
:10033800C2000C2AC03021008E0020008E0021004F
:100348000C140C18A829AB2920000C14AD29200086
:100358000C1021008C148C18B229B52920008C149B
:10036800B72920008C10492AF93021008E0020007E
:100378008E00A329A43021008E0020008E002100C9
:100388000C1020000C10AD29B03021008E00200088
:100398008E00C329993021008E0020008E00C329C9
:1003A800923021008E0020008E00C3298230210067
:1003B8008E0020008E00C329F83021008E00200016
:1003C8008E00A329803021008E0020008E00C329D2
:1003D800903021008E0020008E00C32906302100B5
:1003E8008E0020008E00C3297F3021008E0020005F
:1003F8008E0021000C140C18022A052A20000C1467
:10040800072A20000C1021008C1020008C10492A8B
:100418003608B400B5013508003A0319142AF8293A
:100428003408003A03199E29013A0319B829033AF6
:100438000319BE29013A0319C829073A0319CE2915
:10044800013A0319D429033A0319DA29013A03199D
:10045800E0290F3A0319E629013A0319EC294C3A25
:100468000319F229F82921008C1220008C1621008A
:100478000C1620000C12592A21000C1220000C1610
:1004880021008C1620008C12592A3308B400B501BB
:100498003508003A0319512A592A3408013A031930
:1004A800402A033A0319372A592A2A302000B4006F
:1004B8008D30890B5D2AB40B5D2A003221008C1621
:1004C8008C1A672A6A2A21000C166C2A21000C1241
:1004D80008002000B901B41F722A732A7A2AB309C6
:1004E800B409B30A0319B40AB901B90AB61F7D2AB7
:1004F8007E2A872AB509B609B50A0319B60A013052
:10050800B7003708B906BA01BB0133083404031928
:100518008E2A8F2ABE2AB801B80A9B2A0130B33521
:10052800B40D890B932A0130B7003708B807B41FF8
:100538009E2A9F2A922A0130BA35BB0D890BA02A20
:1005480034083602031DAA2A33083502031CAD2AD3
:10055800AE2AB32A3308B5023408B63B3A14013040
:10056800B436B30C890BB42A0130B802031DBD2A76
:10057800BE2A9F2A39080319C22AC32AC82ABA09D7
:10058800BB09BA0A0319BB0A3B08B4003A08B3000E
:100598000800F601F11FD12AD22AD92AF009F10957
:1005A800F00A0319F10AF601F60AF31FDC2ADD2A1C
:1005B800E62AF209F309F20A0319F30A0130F400F2
:1005C8007408F606F701F801700871040319ED2A9A
:1005D800EE2A1D2BF501F50AFA2A0130F035F10D46
:1005E800890BF22A0130F4007408F507F11FFD2A7F
:1005F800FE2AF12A0130F735F80D890BFF2A710818
:100608007302031D092B70087202031C0C2B0D2B9F
:10061800122B7008F2027108F33B77140130F1369F
:10062800F00C890B132B0130F502031D1C2B1D2B1D
:10063800FE2A76080319212B222B272BF709F80904
:10064800F70A0319F80A7808F1007708F00008009B
:100658002000C9006430B3000030B4004908C3006A
:10066800C4014308B5004408B60082316D228331C5
:1006780020003308C5004508C6000A30BC00003019
:10068800BD000A30B3000030B4004908C300C401FB
:100698004308B5004408B60082316D22833120003A
:1006A8003408BF003308BE00833183238331200020
:1006B8003C08C5004508C7000A30BC000030BD0032
:1006C8004908C300C4014308BE004408BF00833181
:1006D8008323833120003C08C5004508C800023048
:1006E800C3004308B300470881316F2183312000DC
:1006F800B301B30A480881316F2183310800200013
:10070800C201BF1F882B892B902BBE09BF09BE0AC7
:100718000319BF0AC201C20ABD1F932B942B992B40
:10072800BC09BD09BC0A0319BD0A3C083D040319EC
:100738009E2B9F2BC82BC101C10AAB2B0130BC35A6
:10074800BD0D890BA32B0130C0004008C107BD1F98
:10075800AE2BAF2BA22B3D083F02031DB52B3C0847
:100768003E02031CB82BB92BBD2B3C08BE023D082A
:10077800BF3B0130BD36BC0C890BBE2B0130C1021A
:10078800031DC72BC82BAF2B42080319CC2BCD2B2D
:10079800D22BBE09BF09BE0A0319BF0A3F08BD0014
:1007A8003E08BC0008002000A101FC1FDC2BDD2B4B
:1007B800E42BFB09FC09FB0A0319FC0AA101A10AA5
:1007C800FA1FE72BE82BED2BF909FA09F90A0319A7
:1007D800FA0A79087A040319F22BF32B1C2CA001CE
:1007E800A00AFF2B0130F935FA0D890BF72B0130E0
:1007F800FD007D08A007FA1F022C032CF62B7A08AF
:100808007C02031D092C79087B02031C0C2C0D2C7F
:10081800112C7908FB027A08FC3B0130FA36F90CF6
:10082800890B122C0130A002031D1B2C1C2C032C3D
:1008380021080319202C212C262CFB09FC09FB0A72
:100848000319FC0A7C08FA007B08F90008008431C7
:10085800A7248431CC30843182248431BE30843161
:10086800822484318431582484312000B800380827
:10087800BB008431582484312000B8003808BC00FB
:100888003B08B8000430B836890B472C3C08B9003F
:100898000330B935FF3E031D4D2C39353804BA00F5
:1008A8003A08BD003D08080008302000B3003308AE
:1008B800B70021000C1120000C1121000C1500308C
:1008C80020000C190130B5003508B3000730B335E6
:1008D800890B6B2C36363304B4003408B60000009C
:1008E800FF302000B3003308B7073708803A7F3E4F
:1008F80003187F2C802C5D2C360808002000B400DB
:100908000830B3003308B50021000C1120000C1189
:1009180020003418902C932C21000C15952C2100C4
:100928000C11000021000C1503102000B40CFF303E
:10093800B3003308B5073508803A7F3E0318A52C65
:10094800A62C882C08002000B301B30ABF2C210074
:100958000C1120000C110830890BB02C000021006C
:100968000C15003220000C19BA2CBB2CBC2CB3017E
:1009780000320032003220003308031DC42CC52C7D
:10098800AB2C08008431F92484318431E02484318B
:100998002000CB018431ED24843184312B2484312F
:1009A8002000CA004A08CC00CB01CB0A4C0883318E
:1009B8002C238431CC2C692820008C018E01220044
:1009C8008C018E0123008C018E0121008C018E0187
:1009D80008008431A7248431CC30843182248431C6
:1009E8004430843182248431080078302100990011
:0209F8000800F5
:020000040001F9
:04000E00E4CFFFDC60
:00000001FF
