:020000040000FA
:02000000602876
:100008007E1480310B1D09280A285E2805307A02E3
:10001800031C0F2810284028FA01FA0A4028F30187
:100028007A08F8007808F400200050088331AC23DF
:1000380080315628F301F30A7A08F8007808F400AA
:10004800200051088331AC2380315628F3017A0807
:10005800F8007808F400200052088331AC2380317E
:100068005628F3017A08F8007808F40020005308AD
:100078008331AC23803156287A08F800F9017908D1
:10008800003A0319482856287808013A0319132812
:10009800033A03191E28013A03192A28073A0319B3
:1000A800352856280130F8007808FA07D2302000A1
:1000B80095000B117E100900612885315825803183
:1000C800FA00D001D101D201D3017E102000C82A44
:1000D800F200F22921000E118E100E100C118C1056
:1000E8000C1022000E118E100E100C118C100C101A
:1000F80021000C160C1A8128842821008C168628C9
:1001080021008C1222000C128C121D2A21000C11C5
:100118008C1022000C118C1021000C160C1A95283A
:10012800982821008C169A2821008C128C1A9D2858
:10013800A02821000E15A22821000E110E19A528AD
:10014800A82821008E14AA2821008E108E18AD2808
:10015800B02821000E14B22821000E100E18B52860
:10016800B82821000C14BA2821000C1022000C1207
:100178008C120E118E100E100C101D2A21000E105C
:100188008E108C128C100C1022000E108E108C12F7
:100198008C100C1021000C160C1AD328D62821001C
:1001A8000E15D82821000E110E19DB28DE28210093
:1001B8000C15E02821000C1122000C120E110C1154
:1001C8001D2A21008C120E100C118C100C1022000C
:1001D8008C120E100C118C100C1021000C160C1A1D
:1001E800F628F92821000E15FB2821000E110E19FA
:1001F800FE28012921008E14032921008E102200D7
:100208000C120E118E101D2A21008C120E110C11C9
:100218008C1022008C120E110C118C1021000C165F
:100228000C1A17291A2921008E141C2921008E1056
:100238008E181F29222921000E14242921000E10AE
:100248000E1827292A2921000C142C2921000C100A
:1002580022000C128E100E100C101D2A21008C1278
:100268000E110E100C110C1022008C120E110E1013
:100278000C110C1021000C160C1A432946292100D8
:100288008E14482921008E108E184B294E292100E2
:100298008C14502921008C1022000C128E108C1006
:1002A8001D2A21008C120E118E100E100C110C102C
:1002B80022008C120E118E100E100C110C10210041
:1002C8000C160C1A68296B2921008C146D29210041
:1002D8008C1022000C128C101D2A21000C118C107D
:1002E8000C1022000C118C100C1021000C160C1A8A
:1002F8007E29812921008C16832921008C128C1AD1
:100308008629892921000E158B2921000E110E1925
:100318008E29912921008E14932921008E108E1880
:100328009629992921000E149B2921000E102200DC
:100338000C128C120E118E100E101D2A21008C1218
:100348000E118E100E100C118C100C1022008C1235
:100358000E118E100E100C118C100C101D2A21007D
:100368008C120E110E100C118C100C1022008C1215
:100378000E110E100C118C100C1021000C160C1AFA
:10038800C629C92921008E14CB2921008E102200EC
:100398000C128E101D2A21008C120E118E100E10B8
:1003A8000C1022008C120E118E100E100C10210051
:1003B8000C160C1AE029E32921000C15E529210067
:1003C8000C110C19E829EB2921008C14ED292100C6
:1003D8008C1022000C120C118C101D2A7208F000CF
:1003E800F1017108003A0319FA29CF297008003A77
:1003F80003196E28013A03198A28033A0319C228F7
:10040800013A0319E528073A03190829013A03199B
:100418003229033A03195529013A031971290F3A68
:100428000319A229013A0319B3294C3A0319CF2910
:10043800CF2908002000CA01CB01C101C001C901B0
:10044800C801C601C501C401C3018431F724823142
:10045800CC308431CB248231BE308431CB248231FC
:100468008431992482312000BC003C08C8008431C2
:10047800992482312000BC003C08C90084319924A9
:1004880082318431992482318431992482318431B2
:10049800992482318431992482318431992482319A
:1004A8008431992482318431F7248231200049082B
:1004B800BC000330BC36890B5E2A3C08BD003D08F1
:1004C800C70047081F3903196A2A6B2AAF2A490847
:1004D800BC00BD013C08CA043D08CB044808BC0068
:1004E800BD014A08BF00BE013C083E04CA003D08E1
:1004F8003F04CB00CA09CB090130CA070030CB3D05
:100508000030AF000030AE000030AD006430AC0009
:100518004A08A0004B08A100A201A3010030A700CF
:100528000030A6000230A5007130A4008431652493
:10053800823120002308B3002208B2002108B1004C
:100548002008B00083315123823120002D08CB00D0
:100558002C08CA00C32A4908BC00BD013C08CA04CB
:100568003D08CB044808BC00BD014A08BF00BE01D5
:100578003C083E04CA003D083F04CB00842A4B08CF
:10058800BB004A08BA0008008531542582318531FC
:100598004D258231853130258231853117258231CB
:1005A8008B1382311E22823120003B08CF003A088B
:1005B800CE000A30A8000030A900E830A0000330BF
:1005C800A1004F08A3004E08A2008331F323823113
:1005D80020002108AB002008AA0084313024823191
:1005E80020002808CC004C08D0000A30A8000030B1
:1005F800A9006430A0000030A1004F08A3004E08F5
:10060800A2008331F323823120002108AB002008A7
:10061800AA0084313024823120002808CC004C08FC
:10062800D1000A30A8000030A9000A30A00000302C
:10063800A1004F08A3004E08A2008331F3238231A2
:1006480020002108AB002008AA0084313024823120
:1006580020002808CC004C08D2000A30A80000303E
:10066800A9004F08AB004E08AA008431302482311B
:1006780020002808CC004C08D3008B17023020003B
:10068800CD000430CC00BA30890B482BCC0B482B5A
:10069800CD0B482B0000D12A602800302000B8007C
:1006A8000030B7000030B6000030B5002F082E0427
:1006B8002D042C040319612B622BA32BB901B90A51
:1006C800702B0130AC35AD0DAE0DAF0D890B662B1F
:1006D8000130B4003408B907AF1F732B742B652B96
:1006E8000130B535B60DB70DB80D890B752B2F0830
:1006F8003302031D892B2E083202031D892B2D0876
:100708003102031D892B2C083002031C8C2B8D2BE6
:10071800962B2C08B0022D08B13B2E08B23B2F08AF
:10072800B33B35140130AF36AE0CAD0CAC0C890BB5
:10073800972B0130B902031DA22BA32B742B380869
:10074800AF003708AE003608AD003508AC00080029
:10075800F700CA2B21008E118E1222008E168E15DC
:10076800E02B21008E118E1222008E128E15E02BA6
:1007780021008E118E1222008E168E11E02B210080
:100788008E118E1222008E118E12E02B7408F50045
:10079800F6017608003A0319D22BE02B7508013AC6
:1007A8000319C32B033A0319BC2B013A0319B52BC0
:1007B800073A0319AE2BE02B770880316C20833180
:1007C80073080319E82BE92BEE2B21000C122200E9
:1007D8000C12F22B21000C1622000C12080020002B
:1007E800A501A601200821040319FB2BFC2B2B2CA7
:1007F800A701A70A082C0130A035A10D890B002CF0
:100808000130A4002408A707A11F0B2C0C2CFF2BD8
:100818000130A535A60D890B0D2C21082302031DD7
:10082800172C20082202031C1A2C1B2C202C200811
:10083800A2022108A33B25140130A136A00C890B84
:10084800212C0130A702031D2A2C2B2C0C2C260846
:10085800A1002508A0000800200028082904031981
:10086800362C372C602CAD01AD0A432C0130A8354D
:10087800A90D890B3B2C0130AC002C08AD07A91F32
:10088800462C472C3A2C29082B02031D4D2C2808EE
:100898002A02031C502C512C552C2808AA0229087E
:1008A800AB3B0130A936A80C890B562C0130AD02A0
:1008B800031D5F2C602C472C2B08A9002A08A800D0
:1008C800080000302000AB000030AA000030A9006A
:1008D8000030A800201C712C722C7A2C2408A80740
:1008E8002508A93D2608AA3D2708AB3D0130A435B7
:1008F800A50DA60DA70D890B7B2C0130A336A20CE4
:10090800A10CA00C890B822C2308220421042004AA
:10091800031D8F2C902C6E2C2B08A3002A08A200F4
:100928002908A1002808A00008008B132000A401B2
:100938000E1221000E120330890BA02C000021009A
:100948000E160330890BA62C0000003020000E1A6A
:100958000130A2001030890BAF2C00322000220891
:10096800A0000730A035890BB62C23362004A1003F
:100978002108A3000130A0002008A40708302402A1
:10098800031CC72CC82C9C2C8B172308080020009C
:10099800A1008B13A2010E1221000E1200320032A8
:1009A800000020002118D92CDC2C21000E16DE2C8A
:1009B80021000E121230890BDF2C000021000E16C8
:1009C80003102000A10C0130A0002008A207083065
:1009D8002202031CF02CF12CCF2C8B171530890B1D
:1009E800F32C003208002000A001A00A8B130D2D63
:1009F8000E1221000E12A030890B002D21000E16B8
:100A08001430890B052D20000E1A0B2D0C2D0D2DE1
:100A1800A0012008031D112D122DFC2C8B1750301E
:100A2800890B142D08008431F7248531CC308431AA
:100A3800CB24853144308431CB24853104302000E7
:100A4800A400CF30A3000130890B282DA30B282D3B
:100A5800A40B282D003208008B170B178B16873034
:100A6800210095000B11D2302000950008002000CD
:100A78008E0122008E0123008E0121008E010800C4
:100A880020008C0122008C0123008C0121008C01A4
:100A9800080085314425853185313B25853108009D
:0A0AA80068302100990008000134B5
:020000040001F9
:04000E00A4C9FFDCA6
:00000001FF
