:020000040000FA
:020000001128C5
:100008007E1480310B1C0F282700131E0F288B111C
:100018000B1013128B157E1009001228B7308400BC
:1000280080308500203086000030870032303C2246
:100038005530840081308500A0308600003087006C
:1000480019303C22E501E601E701E801E901EA018E
:10005800EB01EC01ED01EE017E1020002D2A253088
:10006800860000308700523084000030850005305B
:10007800F80016001A00F80B3D28573086000030AB
:1000880087000530F80000301E00F80B4828523071
:10009800F8007808F1000530F9007908F2003030EE
:1000A80020215730F8007808F1000530F900790868
:1000B800F2001030E920DC015C08573E8600870119
:1000C8005C08523E8400850100080106031D74285F
:1000D8000130F8007808DC0705305C02031C602852
:1000E80005305C0603197A28013008000030080042
:1000F8002000E301E4017222FE21F42103302000F4
:10010800DE008A30DD005530890B8828DD0B882811
:10011800DE0B882800323320003A03199628013074
:100128006E219328F501F50A00300521F701F70A39
:100138002F309E21C1212000E30163303B21B121F2
:1001480001306E2120006308352206302000DE00D1
:100158001330DD00AD30890BAF28DD0BAF28DE0B87
:10016800AF2800329F280F340E340D340C340B3472
:10017800E134E234E334E43405340F340E340D341E
:100188000C340B340F340E340D340C340B340E3461
:1001980010340934083407340D3410340934083461
:1001A80007340C3410340934083407340B34103451
:1001B8000934083407340A3410340934083407344D
:1001C8000F340E340D340C340B34F6000C11760851
:1001D800E821F7017208770203180229FF30E821A5
:1001E800F30077087107F400740886008701730824
:1001F80081000130F3007308F707EE2820000C1582
:100208000800F7000C107708F6007608F100213096
:10021800DB217508F6007608F1002230DB21283052
:10022800F6007608F1002530DB210F30F60076085D
:10023800F1002630DB210800F50020000C117508BC
:10024800E821F60172087602031838297108860039
:1002580087010108E8210130F3007308F107013034
:10026800F3007308F607262920000C150800D200B1
:100278005C2240390319522952088721FD007D0864
:10028800D300FF30FD007D08F1002730DB2150222C
:100298005308013EFD007D08D3005329D3015308BC
:1002A800080055348E342934F334A53488348E3418
:1002B8002934F334A53433348E342934F334A53453
:1002C80099348E342934F334A53466348E34293481
:1002D800F334A534F1000130F102710A0319080062
:1002E80022008E118230F000DE30890B7929F00B64
:1002F800792922008E158230F000DE30890B8229A0
:10030800F00B82296F29FB004C22F8007808FC00CA
:100318007C08113ECE21F8007808FA007B08F80026
:100328007808F1007A08F9007908F2006130E920CC
:100338007C080800FA000C107A08F8007808F10028
:100348000530F9007908F2002A3020217708F800F2
:100358007808F1003130DB2108007030F5007508AD
:10036800F1002730DB21F6007608F800781ABC295E
:10037800F81ABE29781B080008000C100F30F50089
:100388007508F1002030DB210C144230890BCA2992
:1003980000320800F2000C117208E821FF30E82151
:1003A800F1007108F30020000C1573080800F30031
:1003B8000C117308E821F2007208F4007108E821B2
:1003C80020000C1574080800F00020009111700836
:1003D800240091002000911DEE2924001108080036
:1003E8002400940114179101200091112030240059
:1003F8009500080021008E140E110E100C110C101F
:1004080020000C100C15080042221E129F151E1504
:100418009C0167309B009D170B17080020008E0178
:1004280022008E0123008E0121008E010800200089
:100438008C0122008C0123008C0121008C01080012
:10044800513022009700803021009E007C309D00B2
:10045800080058225F2254224722242208227C20A6
:10046800342AF000700823009A009E180800392AE0
:10047800FE0012001E00FE0B3D2A003422001D1152
:1004880023009E16080021008E1120008E150800FA
:100498005C22893607390800F101E230DB210800C7
:1004A8008E1122008E15080068302100990008007E
:1004B8000730CE2108001B2212220800033403341F
:1004C800023402340134013498345834883468349E
:1004D8008634663468348634663488348C1208006E
:020000040001F9
:04000E00A4C9FFDCA6
:00000001FF
