:020000040000FA
:020000001128C5
:100008007E1480310B1C0F282700131E0F288B111C
:100018000B1013128B157E1009001228F130840082
:1000280081308500203086000030870028306B231F
:100038007130840083308500A53086000030870049
:1000480005306B23EB01EC01ED01EE012100A0016D
:10005800A101A201A301A4017E102000762B20009B
:10006800E501E601DC01DB01E401E301E101E00176
:10007800DF01DE013E22CC301922BE301922C22116
:100088002000D7005708E300C2212000D7005708F6
:10009800E400C221C221C221C221C221C221C2213F
:1000A8003E2220006408D7000330D736890B592830
:1000B8005708D8005808E20062081F3903197E283B
:1000C8006408D700D8015708E5045808E60463080F
:1000D800D700D8016508DA00D90157085904E500A6
:1000E80058085A04E600E509E6090130E50700303A
:1000F800E63D91286408D700D8015708E504580858
:10010800E6046308D700D8016508DA00D901570862
:100118005904E50058085A04E6000030CB000030C6
:10012800CA002730C9001030C8006508F00066080A
:10013800F100F201F3010030F7000030F600023060
:10014800F5007130F400932173082000CF00720885
:10015800CE007108CD007008CC00BC2020004908F2
:10016800E6004808E5006608D6006508D5000800DE
:1001780000302000D3000030D2000030D100003021
:10018800D0004B084A044904480403190629D4013D
:10019800D40ACB1BDB280130C835C90DCA0DCB0DDD
:1001A800890BD0280130FC007C08D407CD28013009
:1001B800D035D10DD20DD30D890BDC284B084F0259
:1001C800031DF0284A084E02031DF02849084D0275
:1001D800031DF02848084C02031CFB284808CC02E1
:1001E8004908CD3B4A08CE3B4B08CF3B5014013061
:1001F800CB36CA0CC90CC80C890BFC280130D402B8
:10020800031DDB285308CB005208CA005108C90057
:100218005008C800080020308600003087004830A9
:100228008400003085000530F80016001A00F80B2D
:1002380019294D308600003087000530F80000305D
:100248001E00F80B24294830F8007808F100053022
:10025800F9007908F200303094224D30F80078081F
:10026800F1000530F9007908F20010305B22200017
:10027800D20152084D3E860087015208483E84004C
:10028800850100080106031D51290130F80078088E
:10029800D20705305202031C3D29053052060319C6
:1002A80057290130080000300800FA0020000C101F
:1002B8007A08F8007808F1000530F9007908F200AA
:1002C800303094227A08F8007808F1000530F900F7
:1002D8007908F2002A3094227708F8007808F100AB
:1002E80021302B23F101F10A22302B231A30F80098
:1002F8007808F10024302B232830F8007808F10022
:1003080025302B230F30F8007808F10026302B23F6
:100318000E30F8007808F10020302B230800003058
:10032800FB000030FA000030F9000030F800701CC3
:10033800A5297408F8077508F93D7608FA3D770885
:10034800FB3D0130F435F50DF60DF70D890BA629A7
:100358000130F336F20CF10CF00C890BAD2973085F
:10036800720471047004031D9B297B08F3007A084A
:10037800F2007908F1007808F00008008B13F40106
:1003880020008E1121008E110330890BC92900002D
:1003980021008E150330890BCF2900000030200082
:1003A8008E190130F2001030890BD82900327208FA
:1003B800F0000730F035890BDE2973367004F10040
:1003C8007108F3000130F0007008F4070830740277
:1003D800031CC4298B1773080800E134E234E334A2
:1003E800E43405340F340E340D340C340B340E342D
:1003F80010340934083407340D34103409340834FF
:1004080007340C3410340934083407340B341034EE
:100418000934083407340A341034093408340734EA
:100428000F340E340D340C340B34F1008B13F201FD
:1004380020008E1121008E110530890B212A711C94
:10044800282A21008E152A2A21008E110F30890BA7
:100458002B2A21008E150310F10C0130F0007008D2
:10046800F20708307202031C1C2A8B172830890BEC
:100478003B2A0800F001F00A8B1370080319562A6A
:1004880020008E1121008E11A630890B492A0032D6
:1004980021008E151430890B4F2A20008E19412A0D
:1004A800F001412A8B175030890B582A0800F600B2
:1004B80020000C1176083923F70172087702031817
:1004C800752AFF303923F30077087107F4007408A0
:1004D80086008701730881000130F3007308F7076D
:1004E800612A20000C15080084234F23452303307C
:1004F8002000EA008A30E9005530890B812AE90B8F
:10050800812AEA0B812A00320F21003A03198F2A27
:100518000130AF228C2AF70125305921E02208004A
:10052800F50020000C1175083923F60172087602CF
:100538000318AC2A710886008701010839230130A5
:10054800F3007308F1070130F3007308F6079A2ADD
:1005580020000C150800F1000130F102710A03199E
:10056800080022008E118230F000DE30890BBA2A92
:10057800F00BBA2A22008E158230F000DE30890B8B
:10058800C32AF00BC32AB02AFA0020000C107A08FC
:10059800F8007808F1007708F9007908F200A0302F
:1005A800942220000C140330890BD82A0000F6226C
:1005B800003A03190800DB2A0B23332020005608D1
:1005C800E8005508E7006708FD007D08EB00F70123
:1005D800F70A6B30C8220130AF22C8300032890BCD
:1005E800F22AE02A07301D23F5007508F600761A6E
:1005F800FF2AF61E052BFF30F5007508F10027309D
:100608002B23F61E092B00300800013008003E227B
:10061800CC301922443019220530F4000F30F30091
:10062800F130890B152BF30B152BF40B152B000050
:100638000800F20020000C1172083923FF3039231A
:10064800F1007108F30020000C1573080800F3008E
:1006580020000C1173083923F2007208F4007108A5
:10066800392320000C1574080800F00020009111AF
:100678007008240091002000911D3F2B24001108D0
:1006880008002400940114179101200091112030D2
:1006980024009500080021008E140E110E100C1174
:1006A8000C1020000C100C15080020008E012200F0
:1006B8008E0123008E0121008E01080020008C018C
:1006C80022008C0123008C0121008C010800FE000F
:1006D80012001E00FE0B6C2B00340F340E340D3448
:1006E8000C340B34802387237B2378227A2B210038
:1006F8008E1122008E15080068302100990008002C
:1007080020008C12080062235923080003340334A4
:100718000234023498345834883468348634663461
:0C072800683486346634883401340134AF
:020000040001F9
:04000E00E4FFFFFF0D
:00000001FF
