:020000040000FA
:020000000B28CB
:100008007E1480312000911A91127E1009000C286C
:100018007E1020002828F1000130F102710A03192E
:10002800080022008E118230F000DE30890B1A2879
:10003800F00B1A2822008E158230F000DE30890B72
:100048002328F00B232810285F2067205B203F20FF
:10005800413023009A009E1C2F2801300F200830C1
:10006800F3009D30F2000630890B3828F20B38284F
:10007800F30B38282C2863201E129F151E159C018F
:1000880067309B009D170B17080020008E01220087
:100098008E0123008E0121008E01080020008C01B2
:1000A80022008C0123008C0121008C0108008E1194
:1000B80022008E15080068302100990008001D11E3
:0C00C80023009E1608005220492008006A
:020000040001F9
:04000E00A4C9FFDCA6
:00000001FF
