:020000040000FA
:020000001428C2
:100008007E1480312000111C1228083022008E0630
:1000180020003D0897003C08960011107E1009004A
:100028001528FD012000BC01BD017E1020005C2ABE
:1000380001340434043406340334083405340334F6
:1000480008340634033404340634033404340534E1
:1000580003340434053403340834033403340834D3
:1000680005340334043405340334043403340334CA
:1000780004340534033404340634033404340134BA
:1000880004340434023404340834013404340834A5
:10009800063403340834053403340834063403348E
:1000A8000434063403340434063403340434013489
:1000B800043404340234043404340334043404347B
:1000C800053404340834033404340834053404345F
:1000D8000434063404340434063404340434023456
:1000E8000434103402340434083402340434103430
:1000F8000234043404340634033408340134043438
:100108000834033403340834023403340834033421
:10011800033404340534033408340634033408340F
:100128000634033404340634033404340334033407
:1001380008340234033408340334033404340234F6
:1001480003340834013403340434013403340834E8
:1001580005340234043405340234083407340234D4
:1001680008340634023404340634023404340334C4
:1001780003340834023403340834033403340834B1
:1001880003340334043403340334083403340334A9
:10019800043406340334043403340334103402348E
:1001A800033410340334033408340334033404347C
:1001B800033403340434033403340434053403347B
:1001C800083406340334083406340334043403345E
:1001D8000334043407340334043407340334083450
:1001E8000334033410340234033410340334033436
:1001F8000434033403340434013404341034013433
:10020800043408340134043410340134043404341C
:100218000334033408340534033408340234033413
:100228000834013403340834023403340834033402
:1002380003340834013403340434063402340434F7
:1002480005340234083406340234083401340334E3
:1002580004340634023408340134033408340234D4
:1002680003340434013403340434033403340834C9
:1002780005340334083406340334083405340334AD
:10028800083403340334043406340334083405349E
:100298000334083403340334043405340334083491
:1002A8000334033408340234033408340134033487
:1002B8000834013403340834033403340834023472
:1002C800033404340234033404340234033404346D
:1002D8000534023408340634023408340134033453
:1002E8000434063402340834013403340834023444
:1002F8000334043401340334043403340334083439
:10030800053403340834063403340834073403341A
:100318000834073403340434063403340834053409
:100328000334083403340334043405340334083400
:1003380003340334083402340334083401340334F6
:1003480008340134033408340234033408340334E1
:1003580003340834033403340834023403340834CF
:1003680002340334083401340334043405340234C9
:1003780008340634023408340134033404340634AF
:1003880002340834013403340834023403340434A6
:100398000134033404340334033408340534033497
:1003A8000834063403340834053403340834033479
:1003B800033404340634033408340534033408346D
:1003C8000334033404340534033408340334033465
:1003D8000834023403340834013403340834013453
:1003E8000334083403340334083402340334043443
:1003F800023403340434023403340434053402343C
:10040800083406340234083401340334043406341E
:100418000234083401340334083402340334043415
:100428000134033404340334033408340534033406
:1004380008340634033408340734033408340734E2
:1004480003340434063403340834053403340834DC
:1004580003340334043405340334083403340334D4
:1004680008340234033408340134033408340134C2
:1004780003340834023403340834033403340434B2
:1004880003340334043402340334043402340334AC
:100498000434063402340434063402340434063492
:1004A8000234043406340234043400340034003492
:1004B80017251F251B252000B601B701AC01AD018A
:1004C8006F2A38083904031DC02A2E082F04031D7B
:1004D800C02AB601B7012000B201B301B001B101D1
:1004E800A601A701AE01AF01B801B9011C30B400E3
:1004F8008030B5003408360784003508373D85005C
:100508000008F900FA017908BA007A08BB00360831
:100518003407F9003708353DFA00013079078400BF
:100528007A0803187A0A85000008FB00FC017B089A
:10053800B8007C08B90036083407F9003708353D9B
:10054800FA000230790784007A0803187A0A8500CD
:100558000008FB00FC017B08F0007C08F10010306B
:10056800F2000030F30062247108AF007008AE009A
:100578003A083B040319652A3608033EB6000030E2
:10058800373DB7003A083B04031DD32A2100111058
:100598008B132000AC01AD0122008E117A2B3A0892
:1005A800FF3EBA00FF303B3DBB0038033904031D52
:1005B800EB2A3B0885003A0884008435850DEB302A
:1005C80084078430853D003FBA00013F362B023056
:1005D80038063904031DFE2A3B0885003A088400C2
:1005E8008435850DDD3084078430853D003FBA00B1
:1005F800013F362B033038063904031D112B3B0805
:1006080085003A0884008435850DCF30840784300E
:10061800853D003FBA00013F362B043038063904C7
:10062800031D242B3B0885003A0884008435850D7A
:10063800C13084078430853D003FBA00013F362B26
:10064800053038063904031D372B3B0885003A0866
:1006580084008435850DB33084078430853D003FA0
:10066800BA00013FBB003A08F0003B08F100F20174
:10067800F3010030F7000F30F6004230F50040304B
:10068800F4007E237308AB007208AA007108A90061
:100698007008A8000030F3000030F2000030F100CC
:1006A8000230F0002B08F7002A08F6002908F500A8
:1006B8002808F4007E2330087007B0003108713D27
:1006C800B1003009B2003109B3003308F9007908E4
:1006D800BD003208F9007908BC002C082D04031D60
:1006E8007A2BF9240130AC070030AD3D20002E08EC
:1006F800FF236F2AA101F31F8E2BF009F109F209DC
:10070800F309F00A0319F10A0319F20A0319F30AA3
:10071800A101A10AF71F9F2BF409F509F609F709AA
:10072800F40A0319F50A0319F60A0319F70A01303E
:10073800F8007808A1060030A5000030A4000030B9
:10074800A3000030A2007308720471047004031936
:10075800E82BA001A00AF31BBD2B0130F035F10DE9
:10076800F20DF30D890BB22B0130F8007808A007C1
:10077800AF2B0130A235A30DA40DA50D890BBE2BFF
:1007880073087702031DD22B72087602031DD22B41
:1007980071087502031DD22B70087402031CDD2B2F
:1007A8007008F4027108F53B7208F63B7308F73BD2
:1007B80022140130F336F20CF10CF00C890BDE2B0D
:1007C8000130A002031DBD2B21080319F62BA20935
:1007D800A309A409A509A20A0319A30A0319A40ACB
:1007E8000319A50A2508F3002408F2002308F100DC
:1007F8002208F0000800F2007203031D0F2C0230DB
:10080800F1000F30F0001E30890B082CF00B082C7B
:10081800F10B082C080002307206031D202C03304F
:10082800F1001D30F0003E30890B182CF00B182C0D
:10083800F10B182C0032080003307206031D302C0F
:100848000430F1000C30F0003430890B292CF00B07
:10085800292CF10B292C080004307206031D412CA9
:100868000530F1003A30F000CC30890B392CF00B10
:10087800392CF10B392C0032080005307206031DA3
:10088800512C0630F1001330F000AE30890B4A2CA1
:10089800F00B4A2CF10B4A2C080006307206031D97
:1008A80008000730F1001730F0006A30890B5A2C25
:1008B800F00B5A2CF10B5A2C00320800F601F11FEC
:1008C8006C2CF009F109F00A0319F10AF601F60A8D
:1008D800F31F772CF209F309F20A0319F30A01301E
:1008E800F4007408F606F701F8017008710403199A
:1008F800A62CF501F50AF11B8B2C0130F035F10D12
:10090800890B822C0130F4007408F5077F2C013024
:10091800F735F80D890B8C2C71087302031D962C82
:1009280070087202031C9D2C7008F2027108F33BD8
:1009380077140130F136F00C890B9E2C0130F5024A
:10094800031D8B2C76080319AE2CF709F809F70A52
:100958000319F80A7808F1007708F000080016343F
:10096800043497340434263405347534053420347B
:100978000634E0340634AF3407340B3402344B34D5
:10098800023493340234BA340234103403347034E9
:100998000334DC34033406340134263401344A3455
:1009A80001345D34013488340134B8340134EE3410
:1009B80001348334003493340034A5340034AE3425
:1009C8000034C4340034DC340034F73400344134A7
:1009D800003449340034523400345734003462341B
:1009E80000346E3400347B3400343D0897003C08F2
:1009F8009600181421001114200011100B178B17E2
:100A0800080020008E0122008E0123008E012100A3
:100A18008E01080020008C0122008C0123008C012B
:100A280021008C01080068302100990008008E110F
:100A380022008E1108000E250525080078340034A0
:00000001FF
