:020000040000FA
:040000000128FE2FA6
:100B980068302100990008008531D72585318531D5
:100BA800E0258531080020008C0122008C012300FB
:100BB8008C0121008C01080020008E0122008E018A
:100BC80023008E0121008E0108008531CC25853156
:100BD8008531D025853124008C1221009517F30129
:100BE8000330F8007808F40006308531FE25853199
:100BF800F32D0128F700770886314C2685317308D4
:100C08000319072E082E0D2E21000C1222000C129B
:100C1800352E21000C1622000C12352E21008E11C3
:100C28008E1222008E158E191A2E1D2E22008E1657
:100C38001F2E22008E124B2E21008E118E122200A2
:100C48008E128E154B2E21008E118E1222008E16BA
:100C58008E114B2E21008E118E1222008E118E12B3
:100C68004B2E7408F500F6017608003A03193D2E5C
:100C78004B2E7508013A03192E2E033A0319272E15
:100C8800013A0319202E073A0319122E4B2E080099
:100C9800F200D22F21000E118E100E100C118C10A4
:100CA8000C1022000E118E100E100C118C100C104E
:100CB80021000C160C1A612E642E21008C16662E4B
:100CC80021008C1222000C128C12FD2F21000C1115
:100CD8008C1022000C118C1021000C160C1A752E89
:100CE800782E21008C167A2E21008C128C1A7D2EDB
:100CF800802E21000E15822E21000E110E19852E30
:100D0800882E21008E148A2E21008E108E188D2E8A
:100D1800902E21000E14922E21000E100E18952EE2
:100D2800982E21000C149A2E21000C1022000C126F
:100D38008C120E118E100E100C10FD2F21000E10AB
:100D48008E108C128C100C1022000E108E108C122B
:100D58008C100C1021000C160C1AB32EB62E210084
:100D68000E15B82E21000E110E19BB2EBE2E210015
:100D78000C15C02E21000C1122000C120E110C11A2
:100D8800FD2F21008C120E100C118C100C1022005B
:100D98008C120E100C118C100C1021000C160C1A51
:100DA800D62ED92E21000E15DB2E21000E110E197C
:100DB800DE2EE12E21008E14E32E21008E1022005B
:100DC8000C120E118E10FD2F21008C120E110C1119
:100DD8008C1022008C120E110C118C1021000C1694
:100DE8000C1AF72EFA2E21008E14FC2E21008E10DC
:100DF8008E18FF2E022F21000E14042F21000E1032
:100E08000E18072F0A2F21000C140C2F21000C108C
:100E180022000C128E100E100C10FD2F21008C12C7
:100E28000E110E100C110C1022008C120E110E1047
:100E38000C110C1021000C160C1A232F262F210040
:100E48008E14282F21008E108E182B2F2E2F210064
:100E58008C14302F21008C1022000C128E108C1054
:100E6800FD2F21008C120E118E100E100C110C107B
:100E780022008C120E118E100E100C110C10210075
:100E88000C160C1A482F4B2F21008C144D2F2100C3
:100E98008C1022000C128C10FD2F21000C118C10CC
:100EA8000C1022000C118C100C1021000C160C1ABE
:100EB8005E2F612F21008C16632F21008C128C1A53
:100EC800662F692F21000E156B2F21000E110E19A8
:100ED8006E2F712F21008E14732F21008E108E1803
:100EE800762F792F21000E147B2F21000E1022005F
:100EF8000C128C120E118E100E10FD2F21008C1268
:100F08000E118E100E100C118C100C1022008C1269
:100F18000E118E100E100C118C100C10FD2F2100CC
:100F28008C120E110E100C118C100C1022008C1249
:100F38000E110E100C118C100C1021000C160C1A2E
:100F4800A62FA92F21008E14AB2F21008E1022006E
:100F58000C128E10FD2F21008C120E118E100E1007
:100F68000C1022008C120E118E100E100C10210085
:100F78000C160C1AC02FC32F21000C15C52F2100E9
:100F88000C110C19C82FCB2F21008C14CD2F210048
:100F98008C1022000C120C118C10FD2F7208F0001E
:100FA800F1017108003A0319DA2FAF2F7008003ADF
:100FB80003194E2E013A03196A2E033A0319A22E79
:100FC800013A0319C52E073A0319E82E013A031905
:100FD800122F033A0319352F013A0319512F0F3AEB
:100FE8000319822F013A0319932F4C3A0319AF2F93
:080FF800AF2F08002000E92DD5
:020000040001F9
:04000E00A4C9FFDCA6
:00000001FF
