S0130000576972656C6573735061642E73726563AE
S113000033C000004CC000004AC0000048C00000DB
S11300107DC5000044C0000042C0000040C0000094
S11300203EC000003CC000003AC0000038C00000E0
S113003036C0000034C0000032C0000030C00000F0
S1130040A7C500002CC000002AC0000028C0000082
S113005026C00000A7C5000022C0000020C0000088
S11300601EC000001CC0000011241FBECFEFD4E04E
S1130070DEBFCDBF11E0A0E0B1E0ECEDFCE002C0DA
S113008005900D92A832B107D9F721E0A8E2B1E0BA
S113009001C01D92AF32B207E1F7D2D51DC6B0CF71
S11300A0E0910801F0910901808181608083E091F1
S11300B00E01F0910F01808181608083E09108013D
S11300C0F0910901808188608083E0910801F091BA
S11300D0090180818F7E8083E0910801F0910901FC
S11300E0808180628083E0910801F0910901808120
S11300F084608083E0910E01F0910F01808184601F
S113010080830895E0910201F091030180818F774B
S11301108083E0910201F0910301808180648083F7
S1130120E0910201F0910301808180628083E0917B
S11301300201F0910301808180618083E0910201DA
S1130140F0910301808188608083E0910201F09145
S1130150030180818B7F80831DBC08958EBDE09157
S11301600001F0910101808187FFFDCF8EB51DBC98
S11301708EB50895E0910E01F0910F0180818B7F7F
S1130180808382E1EBDF80E0E9DFE0910E01F09112
S11301900F018081846080830895E0910E01F091C5
S11301A00F0180818B7F808383E1D8DF80E0D6DFFD
S11301B0E0910E01F0910F018081846080830895A5
S11301C0CF93DF93E0910E01F0910F0180818B7F3B
S11301D0808385E1C3DF80E0C1DF80E0BFDFE091A1
S11301E00E01F0910F01808184608083E0910E0103
S11301F0F0910F0180818B7F808385E1AFDFC8E2BE
S1130200D1E0888380E0AADF898380E0A7DF8A8346
S1130210E0910E01F0910F01808184608083DF9171
S1130220CF910895E0910E01F0910F0180818B7FB1
S1130230808381E193DF80E091DFE0910E01F09112
S11302400F01808184608083BBDF809128018695C3
S11302508170089525DF56DFE5CFCF93DF93E091DA
S11302600E01F0910F0180818B7F808388E176DF1E
S113027080E074DF80E072DF80E070DFE0910E01E7
S1130280F0910F01808184608083E0910E01F091F0
S11302900F0180818B7F808388E160DFC8E2D1E039
S11302A0888380E05BDF898380E058DF8A8380E095
S11302B055DF8B83E0910E01F0910F018081846002
S11302C08083DF91CF910895E0910E01F0910F01A9
S11302D080818B7F808380E541DF80E03FDFE09198
S11302E00E01F0910F018081846080830895E09174
S11302F00E01F0910F0180818B7F808381E42EDFDA
S113030080E02CDFE0910E01F0910F018081846088
S113031080830895E0910E01F0910F0180818B7F1D
S1130320808388E41BDF80E019DFE0910E01F09107
S11303300F0180818460808308950F931F93CF936E
S1130340DF93082F162FD42FC22FE0910E01F091C6
S11303500F0180818B7F808381E800DF80E0FEDEF7
S1130360802FFCDE812FFADE8D2FF8DE8C2FF6DE57
S113037080E0F4DEE0910E01F0910F018081846051
S11303808083DF91CF911F910F910895E091040133
S1130390F09105018081877F8083E0910801F091CD
S11303A0090180818F7B8083E0910801F09109012C
S11303B080818F778083E0910401F0910501808131
S11303C08F7D8083E0910401F091050180818F7B12
S11303D08083E0910E01F0910F0180818F7B8083F7
S11303E0E0910E01F0910F0180818F778083E0917D
S11303F00A01F0910B0180818F7D8083E0910A01D5
S1130400F0910B0180818F7B80830895E091080136
S1130410F09109018823B1F0808180648083E091A8
S11304200801F0910901808180688083E0910E01C8
S1130430F0910F01808180648083E0910E01F0913E
S11304400F0107C080818F7B8083E0910801F091C8
S1130450090180818F7780830895E0910E01F091E6
S11304600F01813051F4808180648083E0910A011E
S1130470F0910B0180818F7D09C080818F7B808307
S1130480E0910A01F0910B018081806280830895DC
S1130490E0910801F09109018130C1F48081806408
S11304A08083E0910401F091050180818062808362
S11304B0E0910E01F0910F0180818F7B8083E091A8
S11304C00A01F0910B018081806217C080818F7BCB
S11304D08083E0910401F091050180818F7D808308
S11304E0E0910E01F0910F0180818F7B8083E09178
S11304F00A01F0910B0180818F7D80830895E09142
S11305000A01F0910B01882319F08081886002C0F0
S11305108081877F80830895882309F481C0E091D6
S11305200801F0910901808180648083E0910801D1
S1130530F0910901808180688083E0910401F09149
S11305400501808180628083E0910401F0910501BE
S11305508081806480838AEF90E0E0910E01F091C5
S11305600F01208120642083E0910E01F0910F019E
S113057020812F772083E0910A01F0910B012081E3
S11305802F7D2083E0910A01F0910B0120812F7BC4
S11305902083E1EEF4E03197F1F700C00000E09130
S11305A00E01F0910F0120812F7B2083E0910E0139
S11305B0F0910F01208120682083E0910A01F091DD
S11305C00B01208120622083E0910A01F0910B014C
S11305D0208120642083E1EEF4E03197F1F700C03C
S11305E00000E0910E01F0910F0120812F7B208308
S11305F0E0910E01F0910F01208120682083E091A9
S11306000A01F0910B0120812F7D2083E1EEF4E0BB
S11306103197F1F700C00000019709F09ECF0895CB
S1130620B5CEE0910801F091090180818860808352
S1130630E0910801F091090180818F7E8083E0912F
S11306400801F0910901808180628083E0910401B6
S1130650F0910501808180688083E0910A01F09126
S11306600B01808180688083E0910401F091050191
S1130670808184608083E0910A01F0910B01808184
S113068084608083E0910601F0910701808180619C
S11306908083E0910C01F0910D0180818F7E808335
S11306A0E0910401F0910501808180618083E091F3
S11306B00A01F0910B0180818F7E80830895E0917F
S11306C00201F091030180818F778083E091020120
S11306D0F0910301808180648083E0910201F091B4
S11306E0030180818F7D8083E0910201F0910301F9
S11306F0808180618083E0910201F0910301808117
S1130700877F8083E0910201F091030180818B7FD8
S113071080831DBC08958EBDE0910001F09101011C
S1130720808187FFFDCF8EB51DBC0895CF93C82F60
S1130730862FC13039F4E0910A01F0910B019081C8
S11307409F7708C0C23039F4E0910A01F0910B019F
S113075090819B7F9083DFDF8FEFDDDFC13039F441
S1130760E0910A01F0910B019081906808C0C230B9
S113077039F4E0910A01F0910B0190819460908327
S1130780CF9108951F93CF93DF93C82F862F142FF3
S1130790C13039F4E0910A01F0910B0190819F7707
S11307A008C0C23039F4E0910A01F0910B01908144
S11307B09B7F9083B0DFD82F812FADDFC13039F418
S11307C0E0910A01F0910B018081806808C0C23079
S11307D039F4E0910A01F0910B01808184608083F7
S11307E08D2FDF91CF911F910895DF92EF92FF92A9
S11307F00F931F93CF93DF93182F862FD42EE52EBC
S1130800F22E113039F4E0910A01F0910B0190813C
S11308109F7708C0123039F4E0910A01F0910B017E
S113082090819B7F908377DF082FCD2DDE2DCE0125
S11308308F0D911D7C01CE15DF0521F08FEF6BDF4D
S11308408993F9CF113039F4E0910A01F0910B0149
S11308508081806808C0123039F4E0910A01F09177
S11308600B01808184608083802FDF91CF911F9161
S11308700F91FF90EF90DF900895DF92EF92FF9237
S11308800F931F93CF93DF93182F862FD42EE52E2B
S1130890F22E113039F4E0910A01F0910B019081AC
S11308A09F7708C0123039F4E0910A01F0910B01EE
S11308B090819B7F90832FDF082FCD2DDE2DCE01DD
S11308C08F0D911D7C01CE15DF0519F0899123DF71
S11308D0FACF113039F4E0910A01F0910B018081D3
S11308E0806808C0123039F4E0910A01F0910B01DC
S11308F0808184608083802FDF91CF911F910F913D
S1130900FF90EF90DF900895FF920F931F93CF9382
S1130910DF9300D000D01F92CDB7DEB7F82E8E0142
S11309200F5F1F4F85E0F80111928A95E9F725E0E2
S113093043E251E060E38F2DA0DF25E0A80160E1F0
S11309408F2D53DFF1E0FF120DC0F801A3E2B1E0F7
S1130950CE01069631912D91321315C0E817F9078F
S1130960C9F70FC082E0F8120EC0F801AEE1B1E0A1
S1130970CE01069631912D91321305C0E817F9077F
S1130980C9F780E001C081E00F900F900F900F90A5
S11309900F90DF91CF911F910F91FF900895CF9306
S11309A0C82F813029F4E0910C01F0910D0106C0AB
S11309B0823039F4E0910A01F0910B0180818F7E3D
S11309C0808325E049E151E06AE28C2F56DF25E07F
S11309D044E151E06BE28C2F50DF21E043E151E030
S11309E06CE28C2F4ADF21E042E151E06DE28C2F72
S11309F044DF21E041E151E06EE28C2F3EDF21E053
S1130A0040E151E06FE28C2F38DF4FE361E28C2F3D
S1130A10B9DE4FE362E28C2FB5DE48E265E28C2F4B
S1130A20B1DE42E061E38C2FADDE42E062E38C2F65
S1130A30A9DE42E063E38C2FA5DE42E064E38C2F61
S1130A40A1DE42E065E38C2F9DDE42E066E38C2F5D
S1130A5099DE4FE066E28C2F95DE4FE060E28C2F4A
S1130A6091DEC13029F4E0910C01F0910D0106C032
S1130A70C23039F4E0910A01F0910B018081806168
S1130A80808382E38A95F1F7CF91089567E04ECE93
S1130A90FDDF8E70869508950F931F93CF93DF9398
S1130AA0C82F8B01F5DFD82F61E1680F8C2F3EDE54
S1130AB0282FA80161E68C2F98DE8D2FDF91CF912E
S1130AC01F910F91089540E062EE5CCE0F931F9347
S1130AD0CF93DF93D82F8B01FB0111821082D6DFD5
S1130AE086FF0DC0B8018D2FD7DFC82F4FEF67E207
S1130AF08D2F48DE8D2FE7DF81E08C0F01C080E071
S1130B00DF91CF911F910F91089508951F920F9235
S1130B100FB60F9211242F933F934F935F936F93CC
S1130B207F938F939F93AF93BF93EF93FF93E09142
S1130B300C01F0910D01808183FF0BC08BDB8DDBF9
S1130B402FEF4FEF60912B0180912A01F6DB81E0BA
S1130B500DC0808180FF05C07DDBC9DB81E098DCAE
S1130B6006C078DB07DB80E093DC80E04FDCFF919C
S1130B70EF91BF91AF919F918F917F916F915F9111
S1130B804F913F912F910F900FBE0F901F9018958A
S1130B901F920F920FB60F9211240F900FBE0F9059
S1130BA01F9018951F920F920FB60F9211240F9059
S1130BB00FBE0F901F90189573DAA4DA33DB84DB31
S1130BC0A9CBCF93DF9300D0CDB7DEB719821A82B9
S1130BD028DD75DD81E098DE882389F081E03DDC45
S1130BE087EA91E60197F1F700C0000080E035DC68
S1130BF087EA91E60197F1F700C00000EFCF81E0AA
S1130C00CEDE80E07CDC10E05ADDBE016F5F7F4FFA
S1130C1081E05CDF8981823049F480E070DC11235B
S1130C2011F011E0F1CFC8DF4ADDFBCF833029F4A6
S1130C3081E065DCC1DF43DDE6CF80E060DCE4CF4A
S1130C4064DFE0910C01F0910D0180818860808364
S1130C50E0910C01F0910D01808184608083E0912A
S1130C600C01F0910D01808182608083E0910C0180
S1130C70F0910D01808181608083E0910601F09103
S1130C8007018081877F8083E0910601F09107014D
S1130C9080818B7F8083E0910601F0910701808140
S1130CA08D7F8083E0910601F091070180818E7F22
S1130CB0808380E88FBF82E0809368008FE0809318
S1130CC06C0064DBEDD91EDAADDA67DAFDDA81E0B7
S10F0CD023DC80E021DC75DFF894FFCF0A
S1130CDC4D004C002A00270024002B00280025007E
S1130CEC0E0D0C0B0A100908070F0E0D0C0B0F0E32
S10B0CFC0D0C0B0F0E0D0C0B87
S9030000FC
