:020000040000FA
:020000001128C5
:100008007E1480310B1C0F282700131E0F288B111C
:100018000B1013128B157E10090012285F30840014
:1000280081308500203086000030870032304C2334
:100038006030840082308500A03086000030870060
:1000480019304C23E401E501E601E701E801E90183
:10005800EA01EB01EC01ED017E102000CA2A200024
:10006800DF01E001EB01EB0A7E2327231D23153076
:100078002000DD004930890B3F28DD0B3F280000B8
:10008800DD20003A03195F2820000C1205302000FB
:10009800DD000D30890B4E28DD0B4E2800002000B6
:1000A8000C1605302000DD000D30890B5928DD0BBA
:1000B8005928000048286B03031D6D28F501F50A2F
:1000C8000030F5210230DD005D08F7002A30A52256
:1000D800052320006B08031D7E287C30F000833048
:1000E800F1000230F2000030F3006C309121F7018A
:1000F8002F3026212000E3016B03031D9F28DF0119
:100108005F304622DA227C30840083308500000884
:10011800DD005F085D06031D9C288E110530200058
:10012800DD000D30890B9628DD0B962800009F28EE
:100138008E15E301E30A20006B08031DB4280C1E8A
:10014800B1280C120230DD005D08F7006C30B822CF
:100158000A30890BAD280000B4280C16E301E30A25
:1001680020006303031DD32822009717171FBA28FE
:1001780021001D141430890BBF280032BB217108DF
:100188002000E2007008E100023062020C3003191E
:100198006102031CD12801302B2222009713093059
:1001A8002000DD001C30890BD728DD0BD728000084
:1001B8007E282030860000308700523084000030CE
:1001C80085000530F80016001A00F80BE7285730AC
:1001D8008600003087000530F80000301E00F80B5C
:1001E800F2285230F8007808F1000530F900790853
:1001F800F200303010225730F8007808F10005304E
:10020800F9007908F2001030D921DC015C08573E6A
:10021800860087015C08523E8400850100080106BB
:10022800031D1E290130F8007808DC0705305C0240
:10023800031C0A2905305C0603192429013008002B
:1002480000300800FA000C107A08F8007808F1006D
:100258000530F9007908F200303010227A08F800E9
:100268007808F1000530F9007908F2002A301022E8
:100278007708F8007808F1002130F822F101F10A36
:100288002230F8221A30F8007808F1002430F822D9
:100298002830F8007808F1002530F8220F30F800EF
:1002A8007808F1002630F8220E30F8007808F100BE
:1002B8002030F8220800E134E234E334E434053431
:1002C8000F340E340D340C340B340F340E340D341B
:1002D8000C340B340F340E340D340C340B340E3410
:1002E80010340934083407340D3410340934083410
:1002F80007340C3410340934083407340B34103400
:100308000934083407340A341034093408340734FB
:100318000F340E340D340C340B34F8007108F60029
:100328007008F5007808F4007408F9000130F2024A
:100338000030F33B720A0319730A031908007508A1
:100348008400760885000008F4007408F70001307E
:10035800F5070030F63D7708F40079088600870134
:10036800740881000130F4007408F9079A29210003
:100378009D149D18BD291C08F200F3017208F400B1
:100388007308F5007408F300F2017208F4007308AA
:10039800F5001B08F200F3017208F4077308F53D35
:1003A8007508F1007408F0000800F6000C117608D2
:1003B8001123F701720877020318F229FF3011237D
:1003C800F30077087107F400740886008701730842
:1003D80081000130F3007308F707DE2920000C15AF
:1003E8000800F7000C107708F6007608F1002130B5
:1003F800F8227508F6007608F1002230F822283035
:10040800F6007608F1002530F8220F30F60076085D
:10041800F1002630F8220800F50020000C117508BC
:100428001123F601720876020318282A710886003B
:100438008701010811230130F3007308F107013027
:10044800F3007308F607162A20000C150800F100BF
:100458000130F102710A0319080020000C1209305A
:10046800F0001C30890B362AF00B362A00322000A7
:100478000C160930F0001C30890B402AF00B402A7A
:1004880000322C2AD2006823403903195D2A520809
:100498007922FD007D08D300FF30FD007D08F100C2
:1004A8002730F82260235308013EFD007D08D30061
:1004B8005E2AD3015308080055348E342934F334A6
:1004C800A53488348E342934F334A53433348E3447
:1004D8002934F334A53499348E342934F334A534CB
:1004E80066348E342934F334A534FB005C23F800D9
:1004F8007808FC007C08113EEA22F8007808FA0027
:100508007B08F8007808F1007A08F9007908F20009
:100518006130D9217C0808000730EA22F500750807
:10052800F600761A992AF61E9F2AFF30F5007508FC
:10053800F1002730F822F61EA32A00300800013007
:100548000800FA000C107A08F8007808F100053065
:10055800F9007908F2002A3010227708F8007808A4
:10056800F1003130F8220800FA000C107A08F8007F
:100578007808F1007708F9007908F200A030102215
:100588000C149022003A03190800C52A28302100CB
:1005980099006B2364236B03031DD32A57236B082D
:1005A800031DD72A522343233320D92A7030F5005C
:1005B8007508F1002730F822F6007608F800781A56
:1005C800E52AF81AE72A781B08000800F20020003C
:1005D8000C1172081123FF301123F1007108F30088
:1005E80020000C1573080800F3000C117308112380
:1005F800F2007208F4007108112320000C15740829
:1006080008000C100F30F5007508F1002030F822B2
:100618000C140032003200320800F0002000911162
:100628007008240091002000911D172B2400110848
:100638000800240094011417910120009111203022
:1006480024009500080021008E140E110E100C11C4
:100658000C1020000C100C15080020008E01220040
:100668008E0123008E0121008E01080020008C01DC
:1006780022008C0123008C0121008C0108005130DC
:1006880022009700803021009E007C309D000800E9
:10069800FE0012001E00FE0B4D2B003421000C162C
:1006A80020000C12080021008E1120008E15080071
:1006B8006823893607390800F101E230F82208007A
:1006C8000C1220000C1608000730EA2208003A2312
:1006D8003123080003340334023402349834583484
:1006E80088346834863466346834863466348834AA
:0806F800013401348C120800EA
:020000040001F9
:04000E00A4C9FFDCA6
:00000001FF
