:020000040000FA
:020000000828CE
:100008007E1480317E10090009280930840081306F
:10001800850020308600003087002D308231DF22B5
:100028008031DC01DD01DE01DF01E001E101E201F7
:10003800E301E4017E102000942A2000DA01DB01AC
:100048008231F62280318231B02280318231BC2265
:10005800803115302000D8004930890B3128D80B61
:1000680031280000803186208031003A03193D286C
:100078003E284328013081315F2180313E280130FC
:10008800813185218031F501F50A00308131AB21BC
:10009800803102302000D8005808F70048308231FB
:1000A800302280318231842280310A30F00083305E
:1000B800F1000230F2000030F30063308031DB20C1
:1000C800803120000C1A69286A287728DA015A300A
:1000D80081313621803182314822803121008C12D1
:1000E80020008C167B2821008C1620008C120530ED
:1000F8002000D8000D30890B7F28D80B7F280000FE
:100108006528080020308600003087004D308400C4
:10011800003085000530F80016001A00F80B90280A
:1001280052308600003087000530F80000301E008D
:10013800F80B9B284D30F8007808F1000530F900DD
:100148007908F20030308131F22180315230F800E4
:100158007808F1000530F9007908F2001030813193
:10016800CF2180312000D7015708523E86008701F1
:1001780057084D3E84008501000801060319C5286B
:10018800C628C728D1280130F8007808D7070530D5
:100198005702031CD028D128B82805305706031960
:1001A800D628D728D9280130DA2800300800F800E6
:1001B8007108F6007008F5007808F4007408F90072
:1001C800FC2875088400760885000008F400740887
:1001D800F7000130F5070030F63D7708F40079089C
:1001E80086008701740881000130F4007408F9075B
:1001F8000130F2020030F33B720A031D0729730A2B
:10020800031D07290829E5280800E134E234E3340E
:10021800E43405340F340E340D340C340B340E34FE
:1002280010340934083407340D34103409340834D0
:1002380007340C3410340934083407340B341034C0
:100248000934083407340A341034093408340734BC
:100258000F340E340D340C340B340F340E340D348B
:100268000C340B342000CD008231F1228131403929
:1002780003193F2940295B2920004D0882311322A8
:100288008131FD007D082000CE00FF30FD007D0893
:10029800F10027308231722281318231EB228131A3
:1002A80020004E08013EFD007D08CE005D2920009B
:1002B800CE014E080800F100752920000E160930FD
:1002C800F0001C30890B6629F00B662900322000EB
:1002D8000E120930F0001C30890B7029F00B7029C0
:1002E80000320130F102710A031D7B297C29612942
:1002F8002930F0009430890B7F29F00B7F290032D8
:100308000800F1009B2920008E160930F0001C30EF
:10031800890B8C29F00B8C29003220008E120930B1
:10032800F0001C30890B9629F00B96290032013019
:10033800F102710A031DA129A22987292930F00099
:100348009430890BA529F00BA52900320800F70085
:1003580020000C107708F6007608F1002130823171
:10036800722281317508F6007608F1002230823158
:10037800722281312830F6007608F100253082316A
:10038800722281310F30F6007608F1002630823172
:10039800722281310800F60020000C1176088231A3
:1003A800A2228131F701E929FF308231A22281316D
:1003B800F30077087107F400740886008701730852
:1003C80081000130F3007308F70772087702031CF5
:1003D800EE29EF29D82920000C150800F500200087
:1003E8000C1175088231A2228131F6010A2A71089E
:1003F8008600870101088231A22281310130F30091
:100408007308F1070130F3007308F60772087602E3
:10041800031C0F2A102AFB2920000C150800FB00DA
:100428008231E5228231F8007808FC007C08113E10
:10043800823160228231F8007808FA007B08F800DF
:100448007808F1007A08F9007908F2006130813102
:10045800CF2182317C080800FA0020000C107A08AD
:10046800F8007808F1000530F9007908F2002A3020
:100478008131F22182317708F8007808F1003130B3
:1004880082317222823108007030F5007508F1005F
:100498002730823172228231F6007608F800781E01
:1004A800562A572A572AF81E5A2A5B2A5B2A781F87
:1004B8005E2A5F2A5F2A0800F20020000C117208E9
:1004C8008231A2228231FF308231A2228231F100B0
:1004D8007108F30020000C1573080800F3002000D1
:1004E8000C1173088231A2228231F2007208F400E2
:1004F80071088231A222823120000C15740808008C
:1005080020000C100F30F5007508F1002030823102
:100518007222823120000C140032003200320800AE
:100528002830210099008231D82282318231F92283
:100538008231803121208231A02A0828F000200051
:1005480091117008240091002000911DAC2AAD2A59
:10055800A82A24001108080021008E140E110E107C
:100568000C110C100C168C1220000C100C15080025
:1005780024009401141791012000911120302400C7
:100588009500080020008E0122008E0123008E01B4
:1005980021008E01080020008C0122008C0123001C
:1005A8008C0121008C0108008231CF2282318231F6
:1005B800C62282310800FE0012001E00FE0BE02A4F
:1005C80000348231F1228231893607390800F1017D
:1005D800E230823172228231080007308231602293
:1005E8008231080020008C12080021000C16080037
:1005F8000334033402340234983458348834683469
:100608008634663468348634663488340134013478
:020000040001F9
:04000E00E4FFFFFF0D
:00000001FF
