:020000001628C0
:100008007E14803120007F08F0000B1D122820305C
:1000180021008E060B112000350895007008FF009E
:100028007E1009001728FA012000B301B401B501B8
:10003800B6017E102000A2282000A901A31F3128A4
:10004800A009A109A209A309A00A0319A10A031971
:10005800A20A0319A30AA901A90AA71F4228A409E9
:10006800A509A609A709A40A0319A50A0319A60A36
:100078000319A70A0130F7007708A9060030AD0078
:100088000030AC000030AB000030AA002308220486
:100098002104200403198B28A801A80AA31B60289F
:1000A8000130A035A10DA20DA30D890B55280130F3
:1000B800F7007708A80752280130AA35AB0DAC0D18
:1000C800AD0D890B612823082702031D7528220816
:1000D8002602031D752821082502031D75282008FE
:1000E8002402031C80282008A4022108A53B22081A
:1000F800A63B2308A73B2A140130A336A20CA10C67
:10010800A00C890B81280130A802031D602829084A
:1001180003199928AA09AB09AC09AD09AA0A031958
:10012800AB0A0319AC0A0319AD0A2D08A3002C0861
:10013800A2002B08A1002A08A000080028302100EE
:10014800990094216A21F801F9017908803A200080
:10015800AE0080302E02031DB3280C30780203183D
:1001680001290C30F3000030F40079088500780884
:1001780084008435850D523084078130853D003FE9
:10018800F100013FF200372171082000AE0072082B
:10019800AF00B001B1013108A3003008A2002F0858
:1001A800A1002E08A0000030A7000130A600E8300A
:1001B800A5004830A400202020002003FF3AB20008
:1001C8003208B5003508950009302000AE001C3013
:1001D800890BEC28AE0BEC2800000130F807003042
:1001E800F93D7908803A2000AE0080302E02031DC8
:1001F800FF280C307802031CB5280000A7280F340C
:100208000134153402341634023417346634183481
:1002180003341734023415340234163401341534D7
:10022800023410340234153400340F3401341534D8
:1002380002341634023417340234173403341834B1
:10024800033419340234153402341834663417343C
:10025800033419340234163403341734033416348F
:10026800003400340034F501F601711C3F2973088D
:10027800F5077408F63D0130F335F40D890B402974
:100288000130F236F10C890B452971087204031DFF
:1002980039297608F2007508F1000800063401349F
:1002A8001534013426340134373401344A340134E6
:1002B8005D34013471340134883401349F3401349D
:1002C800B8340134D2340134EE3401348B170B17AF
:1002D8008B168830210095000B112000950108002D
:1002E80021008E0120008E0122008E0123008E0144
:1002F800080021008C0120008C0122008C012300C1
:100308008C010800013402340434083410342034D9
:1003180040340034023404340534073409340B34CF
:060328007D217421080094
:020000040001F9
:04000E00A4C9FFDCA6
:00000001FF
