:020000040000FA
:02000000542882
:100008007E1480310B1D522805307A02031C3428D7
:10001800FA01FA0A3428F3017A08F8007808F4009B
:100028002000340877224A28F301F30A7A08F800F6
:100038007808F4002000350877224A28F3017A0866
:10004800F8007808F4002000360877224A28F301DF
:100058007A08F8007808F4002000370877224A2840
:100068007A08F800F9017908003A03193C284A2867
:100078007808013A03190F28033A03191828013A96
:1000880003192228073A03192B284A280130F800B7
:100098007808FA070B11D230200095007E1009006D
:1000A80055286123FA00B401B501B601B7017E10E5
:1000B8002000F929F200CD2921000E118E100E1012
:1000C8000C118C100E1222000E118E100E100C1135
:1000D8008C100E1221000C160C1E752821008C168F
:1000E800772821008C1222000C128C1208002100A3
:1000F8000C118C1022000C118C1021000C160C1EF7
:10010800882821008C168A2821008C128C1E8F28A2
:1001180021000E15912821000E110E1D9628210090
:100128008E14982821008E108E1C9D2821000E14F4
:100138009F2821000E100E1CA42821000E16A628A8
:1001480021000E1222000C128C120E118E100E10AD
:100158000E12080021000E108E108C128C100E1238
:1001680022000E108E108C128C100E1221000C160C
:100178000C1EC12821000E15C32821000E110E1DCA
:10018800C82821000C15CA2821000C1122000C12C5
:100198000E110C11080021008C120E100C118C107D
:1001A8000E1222008C120E100C118C100E1221004F
:1001B8000C160C1EE22821000E15E42821000E1151
:1001C8000E1DE92821008E14EB2821008E10220034
:1001D8000C120E118E10080021008C120E110C1139
:1001E8008C1022008C120E110C118C1021000C1690
:1001F8000C1E012921008E14032921008E108E1C4B
:10020800082921000E140A2921000E100E1C0F299E
:1002180021000E16112921000E1222000C128E1038
:100228000E100E12080021008C120E110E100C1167
:100238000E1222008C120E110E100C110E1221003B
:100248000C160C1E2A2921008E142C2921008E1030
:100258008E1C312921008C14332921008C10220096
:100268000C128E108C10080021008C120E118E10AA
:100278000E100C110E1222008C120E118E100E1080
:100288000C110E1221000C160C1E4D2921008C1485
:100298004F2921008C1022000C128C10080021001C
:1002A8000C118C100E1222000C118C100E12210051
:1002B8000C160C1E622921008C16642921008C1250
:1002C8008C1E692921000E156B2921000E110E1DA7
:1002D800702921008E14722921008E108E1C772916
:1002E80021000E14792921000E1022000C128C1204
:1002F8000E118E100E10080021008C120E118E1097
:100308000E100C118C100E1222008C120E118E1071
:100318000E100C118C100E12080021008C120E11F8
:100328000E100C118C100E1222008C120E110E10D1
:100338000C118C100E1221000C160C1EA62921007F
:100348008E14A82921008E1022000C128E1008008D
:1003580021008C120E118E100E100E1222008C121B
:100368000E118E100E100E1221000C160C1EBF2935
:1003780021000C15C12921000C110C1DC6292100D2
:100388008C14C82921008C1022000C120C118C101E
:1003980008007208F000F1017108003A0319D52924
:1003A800AC297008003A03196028013A03197B2820
:1003B800033A0319AE28013A0319CF28073A03195B
:1003C800F028013A03191729033A03193829013A81
:1003D800031953290F3A03198029013A031991295E
:1003E8004C3A0319AC29AC2908005A235E233E2352
:1003F80021000C1423000C1421009D01C0309E0024
:1004080021001D1403302000AE009730890B0A2A02
:10041800AE0B0A2A003219232108B1002008B000C7
:100428003108B3003008B2008B130A30A80000303E
:10043800A900E830A0000330A1003308A300320867
:10044800A200B9222108AB002008AA00ED22280842
:10045800AE002E08B4000A30A8000030A9006430AD
:10046800A0000030A1003308A3003208A200B9227E
:100478002108AB002008AA00ED222808AE002E08AB
:10048800B5000A30A8000030A9000A30A0000030EA
:10049800A1003308A3003208A200B9222108AB004A
:1004A8002008AA00ED222808AE002E08B6000A305F
:1004B800A8000030A9003308AB003208AA00ED22DA
:1004C8002808AE002E08B7008B1702302000AF00B6
:1004D8000430AE00BA30890B6F2AAE0B6F2AAF0B0F
:1004E8006F2A0000042AF700942A21008E118E1228
:1004F80022008E16842A21008E118E1222008E125E
:100508008E15AA2A21008E118E1222008E168E11A7
:10051800AA2A21008E118E1222008E118E12AA2A6A
:100528007408F500F6017608003A03199C2AAA2AED
:100538007508013A03198D2A033A0319862A013AE4
:1005480003197F2A073A0319792AAA2A77085E200D
:1005580073080319B42A21000C1222000C12080097
:1005680021000C1622000C120800A501A601200883
:1005780021040319E82AA701A70AA11BCD2A0130E3
:10058800A035A10D890BC42A0130A4002408A707AF
:10059800C12A0130A535A60D890BCE2A21082302D0
:1005A800031DD82A20082202031CDF2A2008A202E1
:1005B8002108A33B25140130A136A00C890BE02AA1
:1005C8000130A702031DCD2A2608A1002508A00096
:1005D8000800280829040319142BAD01AD0AA91B2A
:1005E800FF2A0130A835A90D890BF62A0130AC0085
:1005F8002C08AD07F32A29082B02031D052B280810
:100608002A02031C0B2B2808AA022908AB3B01303D
:10061800A936A80C890B0C2B0130AD02031DFF2A4B
:100628002B08A9002A08A800080021009D149D187D
:100638001B2B1C082000A200A3012208A4002308E9
:10064800A5002408A300A2012208A4002308A500ED
:1006580021001B082000A200A3012208A4072308E8
:10066800A53D21001C082000A10021001B08200036
:10067800A0000800873095008B170B178B160B11FD
:10068800D23020009500080020008E0122008E0143
:1006980023008E0121008E01080020008C01220019
:1006A8008C0123008C0121008C0108006830210096
:0C06B80099000800512348230800013479
:020000040001F9
:04000E00A4C9FFDCA6
:00000001FF
